:1000000000200020C1110000191200005D0A00004C
:1000100000000000000000000000000000000000E0
:1000200000000000000000000000000019120000A5
:10003000000000000000000019120000191200006A
:100040001912000019120000191200001912000004
:1000500019120000191200001912000019120000F4
:1000600019120000191200001912000019120000E4
:10007000D50500000000000019120000000000007B
:10008000000000000000000019120000191200001A
:10009000191200001912000019120000F1020000EC
:1000A00000000000191200001912000000000000FA
:1000B00019120000191200001912000000000000BF
:1000C00010B5064C2378002B07D1054B002B02D02E
:1000D000044800E000BF0123237010BD94000020FD
:1000E000000000005C210000044B10B5002B03D081
:1000F0000349044800E000BF10BDC04600000000F6
:10010000980000205C210000402292029A1A924638
:100110007047C046174B002B00D1134B9D46FFF78D
:10012000F3FF00218B460F461348144A121A01F0C0
:100130009FF90E4B002B00D098470D4B002B00D0A1
:1001400098470020002104000D000D48002802D02F
:100150000C4800E000BF01F067F92000290000F022
:1001600061FB01F04BF9C0460000080000000000F0
:1001700000000000002000209400002080050020E6
:10018000000000000000000000230F21084A9A1818
:1001900012680A40824206D1064A9B180222196858
:1001A0000A431A6070471033802BEFD1FAE7C0463C
:1001B000080506400C05064080222A4B520170B506
:1001C000DA67BFF34F8FBFF36F8F0023264A274CA8
:1001D0001380274A274D1380274A1380274A13800C
:1001E000274A1380274A13800633A3602E68264BC4
:1001F0007008C018310001F06FF8802302385B02EC
:10020000984225D3214B3100F018C00001F064F86A
:1002100000090238002360626A799A4204D0012AF8
:100220001AD0022A00D11833AA79072A16D0082A30
:1002300016D0062A01D1053A13432A79002A01D0A3
:10024000042213438022E360114B52011A6070BDF7
:10025000C0239B051843DDE70823E5E70222EBE70F
:100260000322E9E704E100E0FC040020000005406F
:10027000FE040020100000200005002002050020E0
:10028000040500200605002000366E01C0C62D00C2
:1002900000E100E0E0200E4B0E4930B5DA680D6851
:1002A00000030D4C0240AA4202D14023236030BD1E
:1002B00024680A4A14600A4A0A4C1268DB68121958
:1002C000094C0340226001220B60084B1A70EEE7D4
:1002D00000000640B0000020340506400C05002058
:1002E0003005064000010640F8040020F404002018
:1002F000042370B53E4C656826691D4208D06360D2
:100300006369DB0700D46FE0902322691343236104
:1003100001231D4217D063601E4208D022698F332B
:100320001343236100F0F8FE0022324B1A60B3073A
:1003300003D51022236993432361730703D59023C8
:1003400022691343236108231D4200D06360AB0779
:1003500049D5002D0DDA80231B0663600123264951
:100360000A681A430A60254A11680B43136000F0BB
:100370004FFE80235B021D4202D0636000F0C2FC8E
:1003800080239B021D420BD0636000F07DFE1C4B5E
:100390005A78202A04D11B79002B01D1FFF70CFFDA
:1003A0008023DB021D4203D000226360154B1A60DC
:1003B00080231B031D4202D06360FFF76BFF802385
:1003C0005B031D4200D0636080239B031D4200D06D
:1003D00063608023DB031D4200D0636080231B0425
:1003E0001D4200D0636070BD8022236993438EE775
:1003F00000000640B00000200C0506401C05064029
:1004000020050020100500200022124B88219A614F
:100410009022114B92001A600823104A8900136041
:100420000F4A11600F4A136041220F4B1A600F4BA5
:1004300007321A600E4B263A1A600E4B66321A606B
:100440000D4B483A1A600D4B03321A600C4B853243
:100450001A60704700000640080506400005064087
:1004600018050640100506402805064020050640F0
:10047000380506403005064034050640480506406C
:100480004005064007B5684600F06EFB6B461A78DB
:100490005B787F2A27D9212B1ED16B461B79002B35
:1004A0000CD080231F4A11680B43136000210722E0
:1004B0001D4B08001A6000F07FFC07BD1B4B1C4859
:1004C0001A681C4B1C49D31812189A42E9D00878B4
:1004D000013118700133F8E70020FFF755FE0120C5
:1004E000FFF752FEE9E7202B12D0222BF4D16B4606
:1004F0001B79002B03D16B465A88104B1A8080233E
:10050000084A11680B4313600022074B1A60D4E7B6
:100510006B461B79002BF2D10721074800F04CFCF9
:10052000EDE7C04608050640040506400005064004
:1005300007010640000106401000002008050020C9
:1005400070B5042000F020FA102000F041FA0021DC
:10055000042000F05DFA00220E4D0F4C110028001F
:1005600000F0E2F900F05AFE200000F019FA28002D
:1005700000F016FAC02100222000890400F0D4F90E
:10058000A023FF21DB059A6B8A439A6311229A63A9
:1005900070BDC0469B3C8072103D8057A0238022D6
:1005A000DB05D96852020A43DA60DA6805490A4075
:1005B000DA60054B054A5A620322DA60044A5A603F
:1005C0007047C046FFFFFEFF00000540CE00003030
:1005D00001080000F7B51122294BDD6915420AD048
:1005E00080272848BF009A6980241100E401214037
:1005F0000191224203D00222154217D1F7BD1C6897
:100600000288BA42EFD22049E4B20A8896B2013297
:1006100092B20A801D4A94550A88BA4201D3019ABF
:100620000A800288013292B20280DCE71848018811
:10063000002920D0596811421DD0028891B2102A99
:1006400000DD10210026134C134F0029D6D0802541
:100650002288AD00AA4200D326802288013995B2B3
:10066000013292B222807A5DD2B21A600288013AD7
:1006700092B20280E9E702215A688A435A60BDE7D4
:1006800000000540FC04002000050020B40000200C
:100690000205002004050020B4020020F7B5504DEB
:1006A0002B68002B23D14F4803889AB2002B00D12E
:1006B0007CE003889EB2402B00DD402600234A4A9E
:1006C0004A4CB3425CD1012181F310880188C91AD8
:1006D00089B20180002181F3108845492B6045488B
:1006E00009680918C81881425BD1434A1360434E18
:1006F000434B3278002A20D0802542481A8801686E
:10070000AD00AA1A8A4218D300213F4A3F4C126812
:100710000195009202688A424FD8012282F3108824
:1007200001681A88521892B21A80002282F3108847
:10073000402102603270364A11601A88002A1ED0A9
:1007400034490222486804001440104217D132484C
:10075000FF320588FF32954200D30480028894B2AC
:10076000013292B202802D4A125DD2B20A601A881A
:10077000013A92B21A8002234A6813434B60F7BDD4
:1007800080272188BF00B94201D300212180218820
:100790008FB2013189B221802149C95DD154013321
:1007A0008FE7147801320C7001319CE7124B196805
:1007B000402900D09BE71A6099E7009A55182288D3
:1007C00097B2013292B222802A78144DD2B2EA5501
:1007D0002288019DAA4201D300222280013199E79B
:1007E00010050020FC040020B4040020FE040020BA
:1007F000200506400001064024050640F4040020C0
:10080000020500200C050020F80400200605002049
:10081000340506400000054004050020B402002015
:10082000B4000020F8B51620592488212F4B5C60B5
:10083000586059605A68002AF9D0FFF781FEFFF727
:10084000ADFE2B4800F08EFE2A4C2B4F200000F00E
:1008500089FE2A4800F086FE200000F083FE284C26
:10086000284800F07FFE00222749284800F036F98A
:10087000FFF7CAFD00F050F92368254D254E2B6087
:100880002B688022336010237B60234B12041A6094
:10089000802252011A600321204BDA6F0A40022A9B
:1008A00006D07A680D310A4202D01D4A7960DA67B3
:1008B00006211C4A1068084206D0306820600020DB
:1008C000D867102311607B6022682B6810339A422E
:1008D00004D822682B68103B9A4204D23368236004
:1008E000FFF7DCFED7E723683360F9E7FC00005030
:1008F0000B2000000D200000000006404C200000EE
:10090000100100508B200000850400004C1F0000E7
:10091000140500201805002000E100E0040000504C
:100920000204000088000050F0B5830ADBB28C4658
:10093000140085B0002B07D08605F60EB3400F4D8E
:100940002A689A4322432A6003015B0F14D06C4645
:1009500025000B4AC2CAC2C5126861462A608200DD
:10096000C001C00E8340920F92001459054AA4188A
:1009700022689A431143216005B0F0BD180200506F
:10098000BC20000010020050044A13680343DB43FC
:100990009B0702D013681843106070470002005094
:1009A0007FB501AA1100084B103370CB70C1830FC3
:1009B0009B009A58054BD2181F2318401E3B8340BA
:1009C00011680B4313607FBDBC200000040200507F
:1009D0000C4B0200186800230B4910B50B4C800823
:1009E0000B60E3681340934203D1002808D1013023
:1009F00002E001380028F4D101235B420B6010BDF6
:100A00000120FCE7240000201C050020000200500B
:100A1000F7B50425104C0600E36810200193236805
:100A20000F002B432360FFF7D3FF072322699A436C
:100A30002A4322610F22A16991430F43A7612069D4
:100A400098430643266100F0E9FB019BDB0602D4D4
:100A50002368AB432360F7BD000200507046EFF3FC
:100A60000881EFF30982024B984700477047000066
:100A7000750A0000FEE7000070B510008C18802297
:100A80000D250A4B1204A14200D170BD9E69164289
:100A9000FCD100268E570A2E03D11D609E69164296
:100AA000FCD100268E5701311E60ECE700000540A6
:100AB0008022044BD20198691042FCD11B680120AE
:100AC0000B70704700000540002310B5934200D121
:100AD00010BDCC5CC4540133F8E70000094B18602A
:100AE000094B1960094B1A600368DA79084B1A60E0
:100AF000FA22084BD2001A610122903319680A4386
:100B00001A60704728050020340500203C050020AD
:100B100018000020000006400E4B0F4A1B685A4385
:100B20000E4B5A6000229A6005321A6080225202EF
:100B300019681142FCD00022012009491A600B6893
:100B4000084A83430B600F23536011680B43136003
:100B50007047C0461C000020A086010010E000E0A5
:100B6000900006400000064010B508220149FFF73A
:100B7000ABFF10BD20050020F8B5194D194A0C0037
:100B8000296894460300184F184A194EA14215D2FD
:100B900029684118604601602968641A80213C6018
:100BA000146821431160134A134910682A684018D9
:100BB0001900FFF789FF2B683360F8BD00216046FC
:100BC000396015680160803129431160094A1900B4
:100BD0001068094A80182200FFF776FF3460ECE7BE
:100BE00018000020440500204C05002008050640A0
:100BF000040506400005064000010640F8B5002344
:100C00003A4C3B4A2370D179937909025918D37829
:100C10000F2B61D00FD8022B2FD0032B50D0012BDC
:100C200022D0022333490A681A430A60324A116803
:100C30000B43136020E0212B34D0222BF1D12F4B1A
:100C400015791F68AD003B695E598E4236D22C4B38
:100C50003000196800F0C6FB002901D10123237080
:100C6000FB683100585905E0122900D91221234BA5
:100C70001B681868FFF780FFF8BD204B1B685E6893
:100C8000F578B3782D025D198D4223D21C4B2800D4
:100C9000196800F0A7FB002901D101232370290066
:100CA0003000E7E7154B1868092900D909211379A5
:100CB00042699B0040689B58C018DBE70E00CFE7F5
:100CC0009378032BADD80D4A9B00126892689E580A
:100CD0003578D9E70D00E2E7084B1B6898690028D2
:100CE0009FD00C29C6D90C21C4E7C0466805002056
:100CF000200500200C0506401C05064028050020A4
:100D000018000020F8B5224C2368002B25D0214D77
:100D10002168214E2A68214B37681868914210D902
:100D20001F4B39002A68C018FFF7CEFE2B681D4AFA
:100D300013602B682A68FF18236837609B1A2360AA
:100D4000F8BD174B2268C0183900FFF7BDFE2368B5
:100D5000144A136000233360F1E7134B1A78002A1A
:100D60000DD15B78052B0AD1104B114A9868116898
:100D7000884204D09968002901D112689A600D4B0D
:100D80001A78002ADCD0002206490A601A70D7E7D8
:100D90004C050020180000204405002000050640F6
:100DA0000001064004050640200500200000064022
:100DB0005C050020680500200022054B1860054BEB
:100DC0001A60054B1960054B1A68054B1A6070478D
:100DD0004805002050050020540500201800002080
:100DE00014050640F8B500230021754A1360754AC2
:100DF0001360754A515613785078002900DB6AE079
:100E00000A2800D9D1E000F05DFA20D0D0D0D0D0AF
:100E100017D006D01E006D4B1A686D4B6D491B68CC
:100E2000D2B25B181A7080236B4A11680B431360AF
:100E300001226A4B1A6001E0FFF7E0FE0021080082
:100E4000FFF7BAFFF8BD664BE6E7634C802B12D183
:100E5000644B1B685B68DA795306DB0F920604D596
:100E6000614A127852001343DBB2594A5949126859
:100E70005218137007E0812B14D1554B554A1B684B
:100E80009B1800221A700020514B584A1B68010021
:100E90009B181870802322681343022223604F4B53
:100EA0001A60CDE7822BEED10F2023001279504D2E
:100EB000024019680140914208D10433444A1B683A
:100EC000444912689B075218DB0FD2E71033AB423C
:100ED000EFD1484BF2E701380A2866D800F0F2F962
:100EE00006654565386565653C6560009378002B4F
:100EF00028D11179404A0F25126802271600802256
:100F00009446294034481A01101804682C408C4239
:100F10000CD101249C40264208D1384C1219146887
:100F2000BC43146064460268A24302600133082B8C
:100F3000E8D18023284A11680B4313600022274B15
:100F40001A607FE7012BF4D10022274B1A70F0E7DB
:100F500092782B4B1A60ECE71C4B92781A60294B65
:100F60001B68002BE5D09847E3E79378002B12D15C
:100F70000F2012790240184959180968014091421E
:100F800005D11E4A9B18022219680A43E2E7103372
:100F9000802BF0D1CDE7012BCBD1134A1370C8E7DA
:100FA0000F4B92781A60184BDAE7022313490A684C
:100FB0001A430A60154A11680B43136042E7C046A2
:100FC000440500204C050020200500206405002079
:100FD00000050640000106400805064004050640DD
:100FE00060050020280500202C0500200101064096
:100FF0008805064078050640300500200C050640AF
:101000005C050020380500203C0500201C0506403A
:101010000022154B10B51A60144B154C9969154BED
:101020000832C9182000FFF74FFD602223781340D3
:10103000202B06D0402B0AD0002B0AD1FFF7D2FE7E
:1010400010BD0D4B1B68002BFAD09847F8E70B4BEF
:10105000F8E702230A490A681A430A60094A116834
:101060000B431360ECE7C046580500200000064023
:101070002005002000010640340500204005002026
:101080000C0506401C050640F7B5E020194B1A492F
:10109000DA680C6880010240A24226D0DB68174C57
:1010A0000340174E0B60226833689A421CD2154DDC
:1010B000154F2B680093154B009A19683B680193F4
:1010C000134B0198C918FFF7FFFC009A019B944647
:1010D00063443B6023689B182360226833689A420C
:1010E00002D20C4B1B682B60F7BD0A4B1A68054BEC
:1010F0001A60F9E70000064058050020500500205E
:10110000540500201405064048050020100506403F
:10111000000106401800002010B500240F4B2100EC
:101120001C600F4B08221C600E4B0F481C600F4BBD
:101130001C600F4B1C600F4B1C6000F099F9802164
:101140000D4A23019B181A6801348A431A60082C3F
:10115000F6D10022094B9A6010BDC046440500201C
:101160004C050020480500202005002050050020E7
:101170005405002030050020080506400000064008
:1011800010B500F035F9582303600120404210BD2E
:1011900010B500F02DF9582303600120404210BD26
:1011A00010B500F025F958230360002010BD10B5DC
:1011B00000F01EF9582303600120404210BD0000DA
:1011C0000B490C4A0C4B9B1A03DD043BC858D0500A
:1011D000FBDC0A480A4901600A4901600A490160CA
:1011E0000A480B49016005480A490160FEF792FF71
:1011F0006821000000000020940000200001005041
:101200005900000016000000880000002400005073
:10121000A55A000000000000FEE7C046072337B5CE
:101220001F4D00202C691C401E4B0193A023296AEE
:10123000DB0219421AD1882000040840431E98415D
:10124000194B40421840C0188B030FD4CB05DB0D5F
:101250000233800858430B0401AA9B0F8904D35C16
:10126000C90E0231594300F037F880000F4B186067
:10127000022C05D04008052C02D00D4BA400E058EC
:101280000F23A9691940013100F026F8094B0A49DA
:1012900018600A4BC01800F01FF8094B186037BDE2
:1012A0000002005001020204001BB70020000020D1
:1012B000D82000002400002040420F0020A1070099
:1012C0001C00002002B4714649084900095C49002D
:1012D0008E4402BC7047C046002243088B4274D340
:1012E00003098B425FD3030A8B4244D3030B8B4227
:1012F00028D3030C8B420DD3FF22090212BA030C30
:101300008B4202D31212090265D0030B8B4219D310
:1013100000E0090AC30B8B4201D3CB03C01A524130
:10132000830B8B4201D38B03C01A5241430B8B4278
:1013300001D34B03C01A5241030B8B4201D30B0361
:10134000C01A5241C30A8B4201D3CB02C01A524188
:10135000830A8B4201D38B02C01A5241430A8B424B
:1013600001D34B02C01A5241030A8B4201D30B0234
:10137000C01A5241CDD2C3098B4201D3CB01C01A4E
:10138000524183098B4201D38B01C01A5241430958
:101390008B4201D34B01C01A524103098B4201D346
:1013A0000B01C01A5241C3088B4201D3CB00C01AB3
:1013B000524183088B4201D38B00C01A524143082B
:1013C0008B4201D34B00C01A5241411A00D2014650
:1013D000524110467047FFE701B5002000F006F8C3
:1013E00002BDC0460029F7D076E770477047C04677
:1013F000014B18687047C04628000020084B10B504
:101400000400002B02D0002100E000BF054B18684B
:10141000836A002B00D09847200000F089FDC04669
:1014200000000000F820000070B500260C4D0D4CA7
:10143000641BA410A64209D1002600F07BFD0A4DD2
:101440000A4C641BA410A64205D170BDB300EB5832
:1014500098470136EEE7B300EB5898470136F2E7BC
:101460008C0000208C0000208C00002090000020C8
:1014700003008218934200D1704719700133F9E7D5
:1014800070B505000E00002804D08369002B01D13F
:1014900000F06EFAAB69AC68002B02D1280000F0B6
:1014A00067FA2D4B9C4222D16C68636EDB0705D432
:1014B000A3899B0502D4A06D00F0FBFAA3891B074A
:1014C00002D52369002B29D12100280000F0AAF8B9
:1014D000002823D001256D42636EDB0705D4A38964
:1014E0009B0502D4A06D00F0E5FA280070BD1B4BEF
:1014F0009C4201D1AC68D8E7194B9C42D5D1EC682D
:10150000D3E70136A360002B04DAA2699A4216DC05
:101510000A2914D023685A1C22601970A3683178F4
:10152000013B0029EDD1A360002B0FDA2800220037
:101530000A3100F021F80A25431CCDD1CAE7220068
:10154000280000F019F8431CE8D1C3E70A252368F6
:101550005A1C22601D70BFE71C2100003C210000C6
:10156000FC20000010B5034B01001868FFF788FF4E
:1015700010BDC04628000020F8B505000E0014007C
:10158000002804D08369002B01D100F0F1F9224B2F
:101590009C422ED16C68A369A360A3891B0732D536
:1015A0002369002B2FD023682269F7B2981A636948
:1015B000F6B2834205DC2100280000F037F900284C
:1015C00027D1A3680130013BA36023685A1C226025
:1015D0001F706369834204D0A389DB0707D50A2EF5
:1015E00005D12100280000F021F9002811D1300098
:1015F000F8BD0A4B9C4201D1AC68CCE7084B9C4239
:10160000C9D1EC68C7E72100280000F00BF80028DA
:10161000C9D001267642EAE71C2100003C210000E7
:10162000FC200000374B70B51D6806000C00002D33
:1016300005D0AB69002B02D1280000F099F9324B9C
:101640009C420FD16C680C23E25E93B211072DD43B
:10165000D90611D409230120336037331343A38102
:10166000404270BD294B9C4201D1AC68EBE7284B4E
:101670009C42E8D1EC68E6E75B0713D5616B002973
:1016800008D023004433994202D0300000F080FAA1
:10169000002363632422A3899343A381002363600F
:1016A000236923600823A2891343A3812369002BA4
:1016B0000BD1A0218022A389890092000B40934284
:1016C00003D02100300000F01FFA0C22A35E01209D
:1016D0001A0099B2024003420FD00022A260626950
:1016E0005242A261002022698242BAD10A06B8D5CC
:1016F00040221343A3810138B3E7880700D462690D
:10170000A260EFE7280000201C2100003C2100001F
:10171000FC200000F7B58B8905000C001A075FD488
:101720004A68002A04DC0A6C002A01DC0020FEBDA5
:10173000E76A002FFAD0002280212E682A601A0062
:1017400049010A400B4234D0606DA3895B0706D57E
:101750006368C01A636B002B01D0236CC01A0200AF
:10176000216A00232800E76AB847A189431C06D1F3
:101770002B681D2B31D82C4ADA40D3072DD50023F6
:10178000636023692360CB0405D5431C02D12B6819
:10179000002B00D16065616B2E600029C6D023004C
:1017A0004433994202D0280000F0F2F9002060632F
:1017B000BDE701232800216AB847431CC5D12B6827
:1017C000002BC2D01D2B01D0162B01D12E60ADE70E
:1017D0004023A2891343A381A9E740230B43FAE7DF
:1017E0000F69002FA2D00A680F60D21B019200225D
:1017F0009B0700D14A69A260019B002B00DC95E7A2
:101800003A002800019B216AA66AB047002806DC3E
:1018100040230120A28940421343A38187E7019B13
:101820003F181B1A0193E7E7010040200B6970B5D0
:1018300005000C00002B02D10025280070BD0028F7
:1018400004D08369002B01D100F092F8144B9C4224
:101850001BD16C680C22A35E002BEDD0626ED20708
:1018600004D49B0502D4A06D00F023F928002100C8
:10187000FFF750FF636E0500DB07DED4A3899B05ED
:10188000DBD4A06D00F016F9D7E7064B9C4201D1DE
:10189000AC68DFE7044B9C42DCD1EC68DAE7C04679
:1018A0001C2100003C210000FC200000002310B59A
:1018B0000400036043608360818143661900C28134
:1018C00003614361836108225C30FFF7D1FD054B62
:1018D00024626362044BA362044BE362044B236300
:1018E00010BDC046791D0000A11D0000D91D0000DB
:1018F000051E000010B5024900F0BAF810BDC04640
:101900002D18000070B568254A1E55430E002900A9
:10191000743100F0A9F9041E08D000212A000160EA
:1019200046600C30A0606832FFF7A2FD200070BD59
:1019300010B5024800F0BDF810BDC046710500208A
:1019400010B5024800F0B6F810BDC0467105002081
:1019500010B5024800F0ADF810BDC0467205002079
:1019600010B5024800F0A6F810BDC0467205002070
:1019700013B50400FFF7ECFFA369002B02D0FFF7BB
:10198000EFFF13BDA364E3642365134B134A1B6885
:10199000A2620193A34201D10123A361200000F0C0
:1019A0001FF86060200000F01BF8A060200000F02D
:1019B00017F800220421E0606068FFF777FF01223A
:1019C0000921A068FFF772FF02221221E068FFF7E9
:1019D0006DFF0123A361D2E7F8200000F518000095
:1019E000F8B50700FFF7A4FF1F4B1E68B369002B73
:1019F00002D13000FFF7BCFF4836B4687368013B82
:101A000004D53368002B22D03668F6E70C22A55E99
:101A1000002D1AD12000154B5830E360656600F0A8
:101A200047F8FFF78DFF2000082229002560A560F8
:101A3000656025616561A5615C30FFF719FD65632F
:101A4000A563A564E5642000F8BD6834D7E70421E8
:101A50003800FFF757FF041E3060D5D1FFF770FF45
:101A60000C233B60EFE7C046F82000000100FFFFB9
:101A7000F7B5040006000027019148346368A568A3
:101A80000093009B013B009304D52468002CF5D102
:101A90003800FEBDAB89012B08D90E22AB5E0133A5
:101AA00004D029003000019B984707436835E8E7D8
:101AB000704770477047000070B50E001D000E2380
:101AC000C95E140096B0002908DA0C22B35E002229
:101AD0002A601B0611D48023DB000FE06A4600F069
:101AE000BDF90028F1DBF02301991B021940054BD9
:101AF000C9184B4259412960EDE74023002023607B
:101B000016B070BD00E0FFFFF7B502268B89050017
:101B10000C00334206D023004733236023610123A6
:101B20006361F7BD6A4601ABFFF7C6FF0099070086
:101B3000280000F099F8002808D10C22A35E9A052D
:101B4000EFD4032293431E43A681E4E70F4BAB621D
:101B50008023A28920601343A381009B20616361DD
:101B6000019B002B0DD028000E23E15E00F088F9C8
:101B7000002806D00322A38993431A0001231343AC
:101B8000A381A0890743A781CBE7C046F5180000D1
:101B900070B50500002910D00C1F2368002B00DA57
:101BA000E418280000F092F91D4A1368002B05D1B3
:101BB00063601460280000F091F970BDA34208D959
:101BC000216860188342F3D118685B68411821606E
:101BD000EEE71A005B68002B01D0A342F9D9116827
:101BE0005018A0420BD12068091850181160834288
:101BF000E0D118685B68411811605360DAE7A042D1
:101C000002D90C232B60D5E721686018834203D1E9
:101C100018685B684118216063605460CAE7C04679
:101C20007405002070B50F4E0D00316804000029C6
:101C300002D100F08FF830602900200000F08AF80F
:101C4000431C0AD00323C51C9D43A84207D0291A70
:101C5000200000F07FF8431C01D101256D422800CF
:101C600070BDC04678050020F7B50322CB1C934316
:101C7000083306001F000C2B32D20C27B94231D892
:101C8000300000F023F9324D2B681C00002C2ED1BF
:101C900039003000FFF7C6FF0400431C1ED12C683A
:101CA0002500002D4AD123682900E3183000019354
:101CB00000F050F8019B834243D123680337FF1A99
:101CC00003239F4308370C2F00D20C273900300024
:101CD000FFF7A8FF431C34D02368DF19276013E007
:101CE000002BCBDA0C23002533602800FEBD2268D0
:101CF000D11B20D40B2917D9E2192760A34211D197
:101D00002A606368116053603000250000F0E6F837
:101D100007220B35231D9543EA1A9D42E5D05B1B34
:101D2000A350E2E75A60ECE76268A34201D12A605F
:101D3000EAE75A60E8E723006468A7E72C006D68CB
:101D4000AFE70C233000336000F0C8F8CDE7C046A1
:101D500074050020002370B5064D040008002B60B8
:101D600000F0D8F8431C03D12B68002B00D023606F
:101D700070BDC0466C05002070B50C000E25495F93
:101D800000F0B4F8002803DB636D1B18636570BDB9
:101D9000A389024A1340A381F9E7C046FFEFFFFF82
:101DA000F8B51F008B8905000C001600DB0505D572
:101DB0000E23C95E0022022300F074F8A389054AAD
:101DC00028001340A38132000E23E15E3B0000F0A7
:101DD0001FF8F8BDFFEFFFFF70B50C000E25495F3F
:101DE00000F060F8A389421C03D1054A1340A38187
:101DF00070BD802252011343A3816065F8E7C0469D
:101E0000FFEFFFFF10B50E23C95E00F015F810BDFF
:101E100070B50400080011001A000023054D2B6066
:101E2000FEF72AFE431C03D12B68002B00D0236051
:101E300070BDC0466C050020002370B5064D04003F
:101E400008002B60FFF79CF9431C03D12B68002B83
:101E500000D0236070BDC0466C050020002370B523
:101E6000064D0400080011002B60FFF791F9431C98
:101E700003D12B68002B00D0236070BD6C050020BF
:101E8000002370B5064D040008002B60FFF788F9A9
:101E9000431C03D12B68002B00D0236070BDC046CB
:101EA0006C05002070B50400080011001A00002322
:101EB000054D2B60FFF77BF9431C03D12B68002BEA
:101EC00000D0236070BDC0466C05002010B50248EC
:101ED000FFF7EFFD10BDC0467005002010B50248A9
:101EE000FFF7E8FD10BDC0467005002070B5040086
:101EF000080011001A000023054D2B60FEF7D8FDE5
:101F0000431C03D12B68002B00D0236070BDC0465A
:101F10006C050020044A03001068002802D0C31892
:101F2000136070470148FAE77C0500208005002017
:101F3000FEE7C046F8B5C046F8BC08BC9E467047F0
:101F4000F8B5C046F8BC08BC9E467047AB1F000001
:101F5000681F0000000000200000000000000000DA
:101F6000000000000000000009024300020100C060
:101F700032090400000102020100052400100105DD
:101F80002401000104240200052406000107058342
:101F90000308000109040100020A0000000705818E
:101FA0000240000007050202400000120110010279
:101FB000000040160402B000030102030120035593
:101FC0000053004200200056006900720074007542
:101FD0000061006C00200043004F004D0004030925
:101FE000041A034100300032003000310034003068
:101FF000003900300033003000350010034E00750A
:102000000076006F0074006F006E000A002B2D2D0B
:102010002D2D2D2D2D2D2D2D2D2D2D2D2D2D2D2DF0
:102020002D2D2D2D2D2D2D2D2D2D2D2D2D2D2D2DE0
:102030002D2D2D2D2D2D2D2D2D2D2D2D2D2D2D2DD0
:102040002D2D2D2D2D2D2D2D2D2D2B007C202020C7
:10205000202020202020204E754D6963726F20556E
:102060005342205669727475616C20434F4D205065
:102070006F72742053616D706C6520436F646520CE
:102080002020202020202020207C00536574205018
:10209000422E3020617320554152542052582070F6
:1020A000696E20616E642050422E3120617320558C
:1020B0004152542054582070696E00000000000006
:1020C000040000000C0000002400000000000000DC
:1020D000040000002C000000001BB700008000007E
:1020E00000D8B80510270000006CDC02006CDC0290
:1020F0000000000000366E012C00002000000000EF
:1021000000000000000000000000000000000000CF
:1021100000000000000000000000000000000000BF
:1021200000000000000000000000000000000000AF
:10213000000000000000000000000000000000009F
:10214000000000000000000000000000000000008F
:10215000000000000000000000000000000000007F
:08216000A8DFFF7F0100000071
:10216800DD1F0000FB1F0000BD1F0000E11F000075
:1021780000C2010000000800080000006000000024
:1021880000D8B80500D8B8052C00002000000000D1
:102198001C2100003C210000FC2000000000000081
:1021A8000000000000000000000000000000000027
:1021B8000000000000000000000000000000000017
:1021C8000000000000000000000000000000000007
:1021D80000000000000000000000000000000000F7
:1021E800000000000000000000000000E9000000FE
:0421F800C100000022
:04000003000011C127
:00000001FF
