:1000000000200020B905000011060000F5030000E3
:1000100000000000000000000000000000000000E0
:1000200000000000000000000000000011060000B9
:100030000000000000000000110600001106000092
:100040001106000011060000110600001106000054
:100050001106000011060000110600001106000044
:100060001106000011060000110600001106000034
:100070001106000000000000110600000000000052
:100080000000000000000000110600001106000042
:100090001106000011060000110600001106000004
:1000A0000000000011060000110600000000000022
:1000B00011060000110600001106000000000000FB
:1000C00010B5064C2378002B07D1054B002B02D02E
:1000D000044800E000BF0123237010BDE4010020AC
:1000E00000000000F4580000044B10B5002B03D0B2
:1000F0000349044800E000BF10BDC04600000000F6
:10010000E8010020F4580000402292029A1A924618
:100110007047C046174B002B00D1134B9D46FFF78D
:10012000F3FF00218B460F461348144A121A00F0C1
:100130007BFC0E4B002B00D098470D4B002B00D0C2
:1001400098470020002104000D000D48002802D02F
:100150000C4800E000BF00F043FC2000290000F044
:100160005BF800F027FCC04600000800000000001B
:100170000000000000200020E40100201802002000
:10018000000000000000000010B5042000F0B2F8EC
:10019000114C102000F0D2F80021042000F0EEF8FD
:1001A000200000F0B3F8C02100222000890400F0F4
:1001B00071F800F02FFAA0230F21DB059A6B8A4318
:1001C000110001220A43F0219A639A6B8A431100BD
:1001D00010220A439A6310BD103D805710B50448A1
:1001E00000F03EF9E1210348490200F075F910BD25
:1001F0001000000400000540002382B0054A01936E
:10020000019B934201D902B07047019B01330193D6
:10021000F6E7C046FF52070059201621882270B524
:10022000144C6060616062606368002BF9D0FFF776
:10023000ABFF002301256360FFF7D0FF0E4B0F4893
:10024000196801F067F80E4801F0F0F80D4C0E48FF
:1002500001F0ECF80D4801F0E9F82A0010210C48F3
:10026000256000F0B1F823686B402360FFF7C4FFFE
:10027000F9E7C046FC000050080000205C53000075
:100280006B530000504200509F530000D3530000B6
:1002900040400050F0B5830ADBB28C46140085B0B4
:1002A000002B07D08605F60EB3400F4D2A689A43FF
:1002B00022432A6003015B0F14D06C4625000B4AD1
:1002C000C2CAC2C5126861462A608200C001C00E5F
:1002D0008340920F92001459054AA41822689A4349
:1002E0001143216005B0F0BD180200500854000011
:1002F00010020050044A13680343DB439B0702D0FB
:100300001368184310607047000200507FB501AABF
:100310001100084B103370CB70C1830F9B009A58AB
:10032000054BD2181F2318401E3B834011680B4316
:1003300013607FBD08540000040200500C4B020003
:10034000186800230B4910B50B4C80080B60E3685C
:100350001340934203D1002808D1013002E0013854
:100360000028F4D101235B420B6010BD0120FCE7A3
:10037000080000200002002000020050F7B504250C
:10038000104C0600E3681020019323680F002B43F4
:100390002360FFF7D3FF072322699A432A43226190
:1003A0000F22A16991430F43A76120699843064337
:1003B000266100F02FF9019BDB0602D42368AB43D2
:1003C0002360F7BD00020050F7B500230125032686
:1003D00001922C009C40214208D032005F00BA40BC
:1003E00004689443019ABA40144304600133102B0B
:1003F000EFD1F7BD7046EFF30881EFF30982024BAE
:1004000098470047704700000D040000FEE7000019
:1004100070B510008C1880220D250A4B1204A142E1
:1004200000D170BD9E691642FCD100268E570A2E5F
:1004300003D11D609E691642FCD100268E57013102
:100440001E60ECE7000005408022044BD201986951
:100450001042FCD11B6801200B7070470000054062
:10046000064A030E9B1801220002000A8240196806
:1004700011431960196891431960704708000050D2
:1004800007B5A022114BD2020193114B00201B6A29
:1004900013421AD1882000041840421E90410D4A90
:1004A0004042104080189A030FD4DA05D20D023270
:1004B000800850431A0401A99B04920F8A5CD90E4C
:1004C0000231514300F0FAF880000EBD010202042F
:1004D00000020050001BB700F0B587B002AF3A0031
:1004E0001E4B04000E0023CB23C21B6813601C4A62
:1004F0000323556992692D0E019200222263E36065
:10050000184A1D40A3681340A360012D02D1FFF7D4
:10051000B7FF7860002E1AD0019BAD001905090FB6
:100520007859013100F0CAF805007008310040190F
:1005300000F0C4F88022831E5202934209D3F000D7
:100540003100401900F0BAF800090238606207B0C3
:10055000F0BDC020800503436362F8E72454000027
:10056000000200500FFFF0FF10B500F01DFA5823F5
:1005700003600120404210BD10B500F015FA582369
:1005800003600120404210BD10B500F00DFA582361
:1005900003600120404210BD10B500F005FA582359
:1005A0000360002010BD10B500F0FEF95823036071
:1005B0000120404210BD00000B490C4A0C4B9B1A15
:1005C00003DD043BC858D050FBDC0A480A490160EF
:1005D0000A4901600A4901600A480B49016005485F
:1005E0000A490160FFF796FD005900000000002055
:1005F000E401002000010050590000001600000036
:100600008800000024000050A55A000000000000EF
:10061000FEE7C046072337B51F4D00202C691C405C
:100620001E4B0193A023296ADB0219421AD18820AC
:1006300000040840431E9841194B40421840C0181E
:100640008B030FD4CB05DB0D0233800858430B041A
:1006500001AA9B0F8904D35CC90E0231594300F0F3
:100660002DF880000F4B1860022C05D04008052C97
:1006700002D00D4BA400E0580F23A96919400131A5
:1006800000F01CF8094B0A4918600A4BC01800F02A
:1006900015F8094B186037BD000200500102020432
:1006A000001BB700040000203454000008000020A4
:1006B00040420F0020A10700000000200022430854
:1006C0008B4274D303098B425FD3030A8B4244D31A
:1006D000030B8B4228D3030C8B420DD3FF2209025C
:1006E00012BA030C8B4202D31212090265D0030B1B
:1006F0008B4219D300E0090AC30B8B4201D3CB0311
:10070000C01A5241830B8B4201D38B03C01A524152
:10071000430B8B4201D34B03C01A5241030B8B4254
:1007200001D30B03C01A5241C30A8B4201D3CB023F
:10073000C01A5241830A8B4201D38B02C01A524124
:10074000430A8B4201D34B02C01A5241030A8B4227
:1007500001D30B02C01A5241CDD2C3098B4201D33F
:10076000CB01C01A524183098B4201D38B01C01ABD
:10077000524143098B4201D34B01C01A5241030934
:100780008B4201D30B01C01A5241C3088B4201D3E3
:10079000CB00C01A524183088B4201D38B00C01A90
:1007A000524143088B4201D34B00C01A5241411AB7
:1007B00000D20146524110467047FFE701B50020C4
:1007C00000F0F0F802BDC0460029F7D076E7704788
:1007D00003460B437FD4002243088B4274D30309A2
:1007E0008B425FD3030A8B4244D3030B8B4228D343
:1007F000030C8B420DD3FF22090212BA030C8B4269
:1008000002D31212090265D0030B8B4219D300E008
:10081000090AC30B8B4201D3CB03C01A5241830B8D
:100820008B4201D38B03C01A5241430B8B4201D33D
:100830004B03C01A5241030B8B4201D30B03C01A66
:100840005241C30A8B4201D3CB02C01A5241830AE0
:100850008B4201D38B02C01A5241430A8B4201D30F
:100860004B02C01A5241030A8B4201D30B02C01A39
:100870005241CDD2C3098B4201D3CB01C01A5241A0
:1008800083098B4201D38B01C01A524143098B4229
:1008900001D34B01C01A524103098B4201D30B0112
:1008A000C01A5241C3088B4201D3CB00C01A524137
:1008B00083088B4201D38B00C01A524143088B42FC
:1008C00001D34B00C01A5241411A00D20146524195
:1008D000104670475DE0CA0F00D04942031000D3B4
:1008E0004042534000229C4603098B422DD3030A09
:1008F0008B4212D3FC22890112BA030A8B420CD319
:10090000890192118B4208D3890192118B4204D341
:1009100089013AD0921100E08909C3098B4201D3C1
:10092000CB01C01A524183098B4201D38B01C01AFB
:10093000524143098B4201D34B01C01A5241030972
:100940008B4201D30B01C01A5241C3088B4201D321
:10095000CB00C01A524183088B4201D38B00C01ACE
:100960005241D9D243088B4201D34B00C01A5241A5
:10097000411A00D20146634652415B10104601D332
:100980004042002B00D54942704763465B1000D3BC
:10099000404201B5002000F005F802BD0029F8D062
:1009A00016E770477047C046014B18687047C0464D
:1009B0000C000020084B10B50400002B02D00021D1
:1009C00000E000BF054B1868836A002B00D09847F1
:1009D000200004F0B5FCC0460000000054540000A4
:1009E00070B500260C4D0D4C641BA410A64209D115
:1009F000002604F0A7FC0A4D0A4C641BA410A64272
:100A000005D170BDB300EB5898470136EEE7B3004F
:100A1000EB5898470136F2E7DC010020DC010020AA
:100A2000DC010020E001002003008218934200D185
:100A3000704719700133F9E7F0B51E000023140068
:100A40008BB09E4204DA8021090673181E002D2304
:100A5000129A149F1370202303229F43462F07D01E
:100A60003B00453B59424B411099013ACB1810933A
:100A700009AB049308AB0393139B00920293109B62
:100A800022000193330000F03DFE0500472F02D104
:100A9000119BDB0728D5109BEB180793462F14D129
:100AA0002B78302B0CD1002200232000310002F0E3
:100AB00007FE002804D10123109A9B1A139A136091
:100AC000139B079A1B68D31807930022002320006A
:100AD000310002F0F5FD002801D0079B0993302278
:100AE000099B07998B4206D32800099B159A5B1B2B
:100AF00013600BB0F0BD591C09911A70F0E7F0B506
:100B0000831C87B0039305000C002B23027000297F
:100B100001DA4C4202336B70092C31DD0A2704AB39
:100B2000DE1D200039000196FFF738FF013E30310D
:100B30002000317039000294FFF74AFE029B040046
:100B4000632BEEDC019B30349A1E13000399147062
:100B500004A8073098420ED804AB073300209A420D
:100B600004D804AB0930C018019BC01A039B1818A5
:100B7000401B07B0F0BD1878013308700131E7E77A
:100B80003023E418AB70281DEC70F1E7F0B595B098
:100B90000C0009921E001A9D070001F09BFD0368DE
:100BA00018000C9300F04CFC00231293237E0722C4
:100BB0000A9323680E900D930D992B68C90547D5AC
:100BC0009B1893431A0008322A601A685B68A26473
:100BD000E3640122A36CE56C0B936B005B080F933D
:100BE0000B98A74B0F99524204F0D4FA002831D148
:100BF0000122A34B0B980F99524202F071FD00287D
:100C000028D10022002329000B9802F05FFD002864
:100C100003D023002D2243331A700A9B994D472B92
:100C200000D9994D03230D9A236101339A43002380
:100C300022600B93099B21003800009613AA00F054
:100C4000E7F9431C00D0A2E00120404215B0F0BDFE
:100C50000733B6E70B9A2B001000290004F09AFA2C
:100C600000280BD0002D03DA23002D2243331A7005
:100C70000A9B864D472BD5D9854DD3E720220A996B
:100C8000636891430F915A1C49D1073363608023F5
:100C90000D9ADB0013430022069212AA05920A9ACB
:100CA00008A9049211AA0392232223600193636886
:100CB00052180292009338002B000B9AFFF7BCFEEB
:100CC0000F9B05001199472B08D1CB1C02DB6368F1
:100CD000994248DD0A9B023BDBB20A930A9B652BD3
:100CE00024D820001A00013950301191FFF707FF76
:100CF000129A0B9013182361012A02DC2268D20792
:100D000001D501332361232308AA9B181B78002BEC
:100D100000D18FE723002D2243331A708AE70F9A00
:100D2000472AB4D1002BB2D10133AFE70A9B662B1F
:100D30001BD1636800290DDD2161002B02D12268DF
:100D4000D20702D5013359182161119BA3650023F5
:100D50000B93D8E7002B03D101222168114200D068
:100D60009A1C2261F1E767230A93119B129A93421E
:100D700006DB22682361D207E7D501332361E4E76C
:100D80000121002B01DC4918C91A5218E9E7226831
:100D9000530507D423692A0038000999B047431C3A
:100DA00028D151E70A9B652B00D8E1E0A06CE16CEB
:100DB0000022002302F084FC002831D001233800F7
:100DC000344A0999B047431C00D13DE7119B129A60
:100DD000934202DB2368DB070CD538000E9B0C9A8C
:100DE0000999B0470025431C00D12DE7129B013B18
:100DF000AB420ADC23689B0700D506E1139BE06841
:100E0000984200DB22E7180020E722000123380087
:100E100009991A32B047431C00D115E70135E5E7BF
:100E2000119B002B38DC012338001A4A0999B0477E
:100E3000431C00D108E7119B129A134302D1236887
:100E4000DB07D7D50E9B38000C9A0999B047431C95
:100E500000D1F9E600230A93119B0A9A5B42934260
:100E600001DC129B97E722000123380009991A320E
:100E7000B047431C00D1E7E60A9B0133EBE7C046CD
:100E8000FFFFEF7F585400005C54000060540000E6
:100E90006454000068540000129AA36D0A929A42AA
:100EA00000DD0A930A9B002B3CDC00230D930A9B78
:100EB000DB43DB170F93A36D0F9A0B930A9B134031
:100EC0000B9AD31A0D9A934234DC119B129A9342D7
:100ED0003DDB2368DB073AD4129A0B9B1199D31A96
:100EE000521A0A929A4200DD0A930A9B002B36DCC2
:100EF0000A9B0025DB43DB170B93119A129B0B997E
:100F00009B1A0A9A0A409B1AAB4200DC72E7220045
:100F10000123380009991A32B047431C00D193E6E7
:100F20000135EAE70A9B2A0038000999B047431CBB
:100F3000BBD189E622000123380009991A32B04753
:100F4000431C00D180E60D9B01330D93B3E70E9B4C
:100F500038000C9A0999B047431CBDD174E60B9B2D
:100F60003800EA1809990A9BB047431CC0D16BE6C8
:100F7000129B012B02DC01231A4234D001232A00E8
:100F800038000999B047431C00D15DE60E9B38003C
:100F90000C9A0999B047431C00D155E6A06CE16C4E
:100FA0000022002302F08CFB00281AD1129B6A1C3D
:100FB000013B38000999B047431C0ED144E622009A
:100FC0000123380009991A32B047431C00D13BE68F
:100FD0000135129B013BAB42F1DC22000B9B5032EE
:100FE000DAE60025F5E72A00E3E7220001233800CE
:100FF00009991932B047431C00D125E60135E36851
:10100000139A9B1AAB42F0DCF8E60025F7E7C046DE
:10101000F7B5150001938A680B690C0000909342A4
:1010200000DA130022002B6043321278002A01D02C
:1010300001332B6023689B0602D52B6802332B609B
:101040002268062317001F401A4227D0230043338B
:101050001B785A1E93412268920630D422000199CF
:101060000098089E4332B047431C25D006232068D1
:101070002A68E16800250340042B03D18D1AEB4355
:10108000DB171D40A3682269934201DD9B1AED180E
:101090000027BD4220D1002010E00137E3682A6814
:1010A0009B1ABB42D2DD2200012301990098089EC1
:1010B0001932B047431CF0D101204042FEBD302020
:1010C000E1184331087021005A1C45310978A218F3
:1010D000433202331170C1E72200012301990098C5
:1010E000089E1A32B047431CE6D00137D1E7000012
:1010F000F0B58BB006920A00433207930590049234
:101100000A7E0C00109B782A07D8622A09D8002A88
:1011100000D1C1E0582A00D18CE02600423632705E
:1011200022E0100063381528F7D802F0AFFA160055
:101130001F00F6FFF6FFF6FFF6FF1F00F6FFF6FFB3
:10114000F6FFF6FFA80036009A00F6FFF6FFB9009A
:10115000F6FF3600F6FFF6FF9E0026001A684236BC
:10116000111D1960136833700123A7E0086819681E
:101170000A1D05060BD50D681A60002D03DA2D2314
:10118000049A6D421370614B0A2703931BE00D68AC
:101190001A604106F1D52DB2EFE70D681968081DF8
:1011A00018602E0601D50D6803E06D06FBD50D68AD
:1011B000ADB2564B082703936F2A00D002372300A5
:1011C000002243331A706368A360002B03DB042200
:1011D000216891432160002D02D1049E002B0CD088
:1011E000049E28003900FFF7EFFA039B013E5B5C89
:1011F00033702B0005009F42F3D9082F09D12368D3
:10120000DB0706D563682269934202DC3023013E86
:101210003370049B9B1B2361079B2100009305985F
:10122000069B09AAFFF7F4FE431C4CD10120404263
:101230000BB0F0BD45310A70344A03921A68216838
:1012400020CA1A60080616D5CB0702D520231943F9
:1012500021601027002DB2D1202322689A432260FA
:10126000ADE7202209680A43226022007821453236
:101270001170274AE1E74806E6D5ADB2E4E71A68FF
:101280000D68101D4969186013682E0601D5196094
:1012900002E06D06FBD519800023049E2361BBE7A5
:1012A0001A68111D1960166800213000626801F08B
:1012B0008FFA002801D0801B6060636823610023DF
:1012C000049A1370A8E72369320006990598079DD0
:1012D000A847431CAAD023689B0715D4099BE06844
:1012E0009842A5DA1800A3E7220001230699059881
:1012F000079E1932B047431C98D00135E368099A1C
:101300009B1AAB42F0DCE9E70025F7E76A540000DE
:101310007B5400000FB40B4B13B51C68002C05D098
:10132000A369002B02D1200001F034F905AB2000A5
:10133000049AA168019301F031FF16BC08BC04B007
:101340001847C0460C00002070B505000E000028AC
:1013500004D08369002B01D101F01CF9AB69AC68A2
:10136000002B02D1280001F015F92D4B9C4222D10F
:101370006C68636EDB0705D4A3899B0502D4A06D5E
:1013800001F0ADF9A3891B0702D52369002B29D1F0
:101390002100280000F0B2F8002823D001256D427A
:1013A000636EDB0705D4A3899B0502D4A06D01F011
:1013B00097F9280070BD1B4B9C4201D1AC68D8E75F
:1013C000194B9C42D5D1EC68D3E70136A360002BC2
:1013D00004DAA2699A4216DC0A2914D023685A1C3E
:1013E00022601970A3683178013B0029EDD1A36018
:1013F000002B0FDA280022000A3100F029F80A2514
:10140000431CCDD1CAE72200280000F021F8431C7C
:10141000E8D1C3E70A2523685A1C22601D70BFE784
:1014200060550000805500004055000010B5034B8A
:1014300001001868FFF788FF10BDC0460C000020AF
:101440000023C25C0133002AFBD1581E7047000004
:10145000F8B505000E001400002804D08369002BA5
:1014600001D101F097F8224B9C422ED16C68A36900
:10147000A360A3891B0732D52369002B2FD02368D3
:101480002269F7B2981A6369F6B2834205DC21003B
:10149000280000F0DDFF002827D1A3680130013BC0
:1014A000A36023685A1C22601F706369834204D0C2
:1014B000A389DB0707D50A2E05D12100280000F0FB
:1014C000C7FF002811D13000F8BD0A4B9C4201D162
:1014D000AC68CCE7084B9C42C9D1EC68C7E7210057
:1014E000280000F00BF80028C9D001267642EAE770
:1014F000605500008055000040550000374B70B526
:101500001D6806000C00002D05D0AB69002B02D130
:10151000280001F03FF8324B9C420FD16C680C233D
:10152000E25E93B211072DD4D90611D4092301200C
:10153000336037331343A381404270BD294B9C4233
:1015400001D1AC68EBE7284B9C42E8D1EC68E6E7B8
:101550005B0713D5616B002908D0230044339942FF
:1015600002D0300001F010FD002363632422A38920
:101570009343A38100236360236923600823A28926
:101580001343A3812369002B0BD1A0218022A389BF
:10159000890092000B40934203D02100300001F0FB
:1015A000C9F80C22A35E01201A0099B2024003423E
:1015B0000FD00022A26062695242A261002022691B
:1015C0008242BAD10A06B8D540221343A38101381A
:1015D000B3E7880700D46269A260EFE70C0000203F
:1015E000605500008055000040550000F0B5060031
:1015F0000B69326987B0002003919A4265DB013B99
:101600009C0000930B00143305931B1904933300C3
:10161000143302931C19049B27681B6838005D1C57
:1016200029000193FFF74AF80190AF4224D3002527
:10163000AC460298059F08CF019A99B251431B0C02
:10164000534349190A0C9B18026889B292B262444A
:10165000521A01681D0C090C9BB2CB1A11145B18AD
:10166000191492B21B041A43049B8C4604C0BB425B
:10167000E1D22368002B30D03000039901F040FB09
:10168000002821DB30000024019B039901330193E2
:1016900014301431036820C99AB21419AAB2A21ADC
:1016A0001B0C2D0C14145B1B1B191C1492B21B0475
:1016B000134308C0049B8B42ECD2009B029A9B0010
:1016C000D3181A68002A15D0019807B0F0BD236816
:1016D000002B06D1009B013B0093029B043CA342DC
:1016E000F5D3009B3361C7E71A68002A06D1009A38
:1016F000013A0092029A043B9A42F5D3009B33616F
:10170000E2E70000F0B59DB002920393029B039CB8
:1017100008930994446A0700259D002C0ED11020DF
:1017200001F04CF8021E786204D1EA21C74BC84888
:1017300001F0E0FE446084600460C4607B6A196864
:1017400000290AD05A68012393404A608B60380010
:1017500001F096F800227B6A1A60039B002B20DAC6
:1017600001232B60039B5B005B080993099DB94B28
:10177000B84A2B40934217D1B74B249A28031360E1
:10178000029B000B184301D100F0BFFDB348269B1C
:101790000690002B02D0B24B269A136006981DB01B
:1017A000F0BD00232B60E1E7089B099C1293139482
:1017B000129813990022002301F082FF041E09D021
:1017C0000123249A1360A74B0693269B002BE5D098
:1017D000A54BE1E71AAB01931BAB00933800129ABB
:1017E000139B01F041FB6E000590760D00D17CE06B
:1017F00012981399139B9D4A1B031B0B1A4311004C
:101800009B4B1894F61800229A4B03F031F99A4A30
:101810009A4B02F0C1FE9A4A9A4B01F07FFF0400F6
:1018200030000D0003F00AFD974A984B02F0B4FE19
:1018300002000B002000290001F070FF04000D00E1
:1018400003F0C6FC0022029000232000290001F0D2
:101850003DFF00280BD0029803F0F0FC2B00220083
:1018600001F02EFF43425841029B1B1A02930123B1
:101870001693029B162B0FD812981399DA00844BFB
:101880009B181A685B6801F021FF002849D0029B71
:10189000013B0293002316931A9B9E1B00230A937D
:1018A0003300013B0D9304D501239B1B0A930023B6
:1018B0000D93029B002B36DB029A0D9B94466344EA
:1018C0000D93002315920E93229B0124092B64D8BB
:1018D000052B02DD0024043B2293229B981E032843
:1018E00064D801F0C9FE293836581A9B1B9A9E18F5
:1018F000684BF218202A0FDD40239B1A9D40664B4F
:101900000298F318D840284303F0C8FC0123634C25
:10191000013E0919189376E7202302989B1A9840F4
:10192000F2E71690B8E70A9B029A9B1A0A93534271
:101930000E9300231593C7E700230F93239B0C936B
:101940000793002B13DC01231A000C9307932392B7
:101950000DE00123F1E70023239A0F939446029BA5
:1019600063440C9301330793002B00DC0123002216
:10197000786A426004321500143541689D4219D9D5
:10198000380000F039FF0690002817D1D521020059
:10199000434B4900CBE60123DEE700230F9422935B
:1019A000013B0C93079300221333D0E701230F93DD
:1019B000023BF6E7013141605200DCE77B6A069AA0
:1019C0001A60079B0E2B00D9EBE0002C00D1E8E059
:1019D000029B002B68DD1A000F212D4B0A40D2001C
:1019E0009B181D685E68029B1C1102231093029BCA
:1019F000DB050BD52B4B0C401A6A5B6A12981399C6
:101A000002F0C8F90323089009911093254B149311
:101A1000002C08D1089809992A00330002F0BAF97D
:101A2000089009915CE001231C420BD0109B280018
:101A300001331093149B31001A685B6802F0ACFD0F
:101A400005000E00149B64100833E0E79954000071
:101A5000B05400000000F07F0F27000095540000F4
:101A60009854000068540000695400000000F03FE2
:101A700001FCFFFF0000F83F61436F63A787D23F7F
:101A8000B3C8608B288AC63FFB799F501344D33F6D
:101A9000485600003204000012040000000010FE4E
:101AA0002E5500002056000002231093029B002BAD
:101AB00016D0129813995C420F23B64A2340DB00DC
:101AC000D3181A685B6802F067FD012600230890AE
:101AD0000991B14D2411002C00D094E0002B9FD12E
:101AE000169B002B00D19BE0089C099D0022200042
:101AF0002900AA4B01F0EAFD002800D190E0079BE5
:101B0000002B00D18CE00C9B002B46DD029B0022B9
:101B1000200029005E1EA24B02F03EFD109B0890A3
:101B20000991013310930C9B1098089C099D149304
:101B300003F084FB22002B0002F02EFD0022994BC3
:101B400001F0ECFD10901191109A119B08920993ED
:101B5000954A119B9446634417930993149B002B59
:101B600061D1002220002900904B02F081FF089AE9
:101B7000179B04000D0001F0BDFD002800D0AFE26E
:101B80008B481199844661440B0020002900089A73
:101B900001F09CFD002800D09FE2129B139C08934B
:101BA00009941B9B002B00DA72E1029A0E2A00DDD9
:101BB0006EE1784BD2009B185C681B680A930B940B
:101BC000239B002B00DBF7E0079B002B00DDF3E0FD
:101BD00000D082E20A980B990022744B02F0DCFCE0
:101BE000089A099B01F090FD079E3500002800D05F
:101BF00059E2069B069A0133089331231370029B26
:101C00000133029354E2344207D0109B0133109306
:101C10002A686B6802F0C0FC3300641008355AE78C
:101C2000029E079B80E7149B0F995A1E594BD200C6
:101C30009B181A685B68002951D000205D4902F0AA
:101C4000A9F8089A099B02F013FF069A069B94468E
:101C50001793149B1090119163441993290020004D
:101C600003F0B6FA149003F0E9FA02000B0020002A
:101C7000290002F0FDFE179B179A01330893149B6D
:101C8000040030331370109A119B0D0001F01EFDFB
:101C9000002875D122002B000020404902F0E8FE08
:101CA000109A119B01F012FD002800D0D2E0199B80
:101CB000089A934200D170E7109811990022384B8E
:101CC00002F06AFC364B109011910022200029008E
:101CD00002F062FC089B04000D001793BEE7089811
:101CE000099902F059FC069A069B94460893149BA6
:101CF00010901191634419932900200003F068FAB1
:101D0000179003F09BFA02000B002000290002F05C
:101D1000AFFE179B089A303313701300199A0133E2
:101D200004000D00089393422CD110981199069A43
:101D3000149B94466344002208931E4B01F0EEFC72
:101D400002000B002000290001F0D4FC002800D084
:101D500080E0109A119B0020164902F089FE0200D3
:101D60000B002000290001F0B1FC002800D114E78D
:101D7000089B1A00013A08921278302AF8D008938A
:101D8000029655E00022064B02F006FC04000D000E
:101D9000B2E7C04648560000205600000000F03F61
:101DA0000000244000001C400000C0FC0000144063
:101DB0000000C07C0000E03F079B069E013B9B1992
:101DC0000C93089C099D0A9A0B9B2000290001F0A6
:101DD000E1FF03F0FDF9079003F030FA0A9A0B9B3C
:101DE00002F0DAFB02000B002000290002F040FEA6
:101DF0003300079A013630321A700C9A08969A42CC
:101E000039D102000B0001F089FC0A9A0B9B0400F7
:101E10000D0001F06FFC00281BD10A9A0B9B2000DB
:101E2000290001F04DFC002802D0079BDB0710D4ED
:101E30003800059900F024FD0023089A02981370D9
:101E4000249B01301860269B002B00D1A6E41A6069
:101E5000A4E4029E089B0893013B1A78392A06D114
:101E6000069A9A42F7D13022069901360A701A78FA
:101E700001321A7084E70022AA4B02F08DFB002287
:101E8000002304000D0001F01BFC00289BD0CFE7CD
:101E90000F9D0E9E0A9C002D12D0229A012A66DC0C
:101EA000189A002A5DD0A04A9B180A9A0121D218DC
:101EB0000A920D9A3800D3180D9300F091FD050099
:101EC000002C0EDD0D9B002B0BDD0D9A23009442A0
:101ED00000DD13000A9AE41AD21A0A920D9AD31A54
:101EE0000D930E9B002B1FD00F9B002B54D0002E68
:101EF00011DD29003200380000F038FE059A01009B
:101F00000500380000F082FD05991490380000F0BB
:101F1000B7FC149B05930E9B9A1BB34204D0380068
:101F2000059900F023FE05900121380000F058FDCE
:101F3000159B0600002B31DD1A000100380000F06F
:101F400015FE229B0600012B2DDD00230E93336925
:101F500003339B00F318586800F0FAFC2023181A8A
:101F600039E036231A9A0E9E0A9C9B1A9DE7079B1E
:101F70005E1E0E9BB34207DB9E1B079B0A9C002B39
:101F800093DAE41A002390E70E9B159AF31AD318FC
:101F90000E9615930026F0E70E9AC0E700230E93E5
:101FA000229B012B13DC00230E93089B002B0ED1E8
:101FB000099B1B030BD15D4B099A134207D00A9B67
:101FC00001330A930D9B01330D9301230E93159B4F
:101FD0000120002BBBD10D9B1F22181803001340BA
:101FE000104246D00132D21A042A3FDD1C22D31AF5
:101FF0000A9AE418D2180A920D9AD3180D930A9BE4
:10200000002B05DD1A003800059900F00BFE059045
:102010000D9B002B05DD31001A00380000F002FE98
:102020000600169B002B26D03100059800F068FEB4
:10203000002820DA029B0A22013B02933800002389
:10204000059900F041FC0F9B0590002B00D166E143
:10205000002329000A22380000F036FC0C9B050002
:10206000002B47DC229B022B0DDC43E0042AC6D068
:1020700013001C33BCE7079B002B35DC229B022B93
:1020800032DD079B0C930C9B002B0CD131000522F9
:10209000380000F019FC06000100059800F030FE41
:1020A000002800DDA5E5239BDB430293069B0893F4
:1020B00000243100380000F0E3FB002D00D1B7E62A
:1020C000002C05D0AC4203D02100380000F0D8FB32
:1020D0002900380000F0D4FBAAE600263500E2E72C
:1020E0000296149E350084E50F9B002B00D1CEE0B4
:1020F000079B0C93002C05DD29002200380000F01E
:1021000091FD05000E9B2800002B22D03800696845
:1021100000F072FB041E0FD10200054B0549FFF7CA
:1021200006FBC04600002440330400000000F07F9E
:102130002E550000EA02000029002B690C319A1C80
:1021400092000C3000F04FFB01222100380000F01B
:1021500069FD069B0C9A0A93013B9B1801222C00F7
:1021600005001493089B13400F9331000598FFF767
:102170003DFA0300210030330D900598079300F0DD
:10218000BFFD2A000E903100380000F0D5FDC36875
:102190000890109301230C93109B002B04D1010095
:1021A000059800F0ADFD0C903800089900F068FB30
:1021B0000A9B0C9A01330893229B13430F9A1343F3
:1021C0000CD1079B392B26D00E9B002B02DD0D9BDB
:1021D000313307930A9B079A1A706AE70E9B002B0C
:1021E00004DB229A13430F9A13431FD10C9B002B3D
:1021F000F0DD05990122380000F014FD3100059052
:1022000000F07EFD002803DCE4D1079BDB07E1D56D
:10221000079B392BDBD139230A9A1370089B08934B
:10222000013B1A78392A68D00132D5E70C9B002B84
:1022300007DD079B392BEED0079B0A9A01331370F9
:1022400037E70A9B079A1A70149B0A9A93423ED06A
:1022500000230A220599380000F036FB0023059080
:102260000A2221003800AC4206D100F02DFB040008
:102270000500089B0A9378E700F026FB290004007C
:1022800000230A22380000F01FFB0500F1E7079B3E
:102290000C93002431000598FFF7A8F9069B303015
:1022A00018550C9B01340790A34207DD00230A2236
:1022B0003800059900F008FB0590EBE70C9B012026
:1022C000002B00DD18000024069B1B1808930599BD
:1022D0000122380000F0A6FC3100059000F010FD4E
:1022E00000289BDC02D1079BDB0797D4089B08934F
:1022F000013B1A78302AFAD0DBE6069A9A428ED150
:10230000029B01330293312399E7094B269A0693E6
:10231000084B002A01D0FFF73FFAFFF73FFA0C9B6A
:10232000002BB6DC229B022B00DDACE6B1E7C046F9
:102330008C54000094540000F7B58B8905000C0004
:102340001A075FD44A68002A04DC0A6C002A01DC00
:102350000020FEBDE76A002FFAD0002280212E68FF
:102360002A601A0049010A400B4234D0606DA389EB
:102370005B0706D56368C01A636B002B01D0236C22
:10238000C01A0200216A00232800E76AB847A18921
:10239000431C06D12B681D2B31D82C4ADA40D307B9
:1023A0002DD50023636023692360CB0405D5431C2E
:1023B00002D12B68002B00D16065616B2E60002973
:1023C000C6D023004433994202D0280000F0DCFD3F
:1023D00000206063BDE701232800216AB847431C41
:1023E000C5D12B68002BC2D01D2B01D0162B01D1DB
:1023F0002E60ADE74023A2891343A381A9E74023C0
:102400000B43FAE70F69002FA2D00A680F60D21BB6
:10241000019200229B0700D14A69A260019B002B18
:1024200000DC95E73A002800019B216AA66AB047C4
:10243000002806DC40230120A28940421343A381E7
:1024400087E7019B3F181B1A0193E7E70100402033
:102450000B6970B505000C00002B02D10025280087
:1024600070BD002804D08369002B01D100F092F8E0
:10247000144B9C421BD16C680C22A35E002BEDD048
:10248000626ED20704D49B0502D4A06D00F027F938
:1024900028002100FFF750FF636E0500DB07DED444
:1024A000A3899B05DBD4A06D00F01AF9D7E7064B92
:1024B0009C4201D1AC68DFE7044B9C42DCD1EC6864
:1024C000DAE7C04660550000805500004055000026
:1024D000002310B50400036043608360818143667C
:1024E0001900C28103614361836108225C30FEF7F9
:1024F0009BFA054B24626362044BA362044BE362C4
:10250000044B236310BDC046353400005D34000029
:1025100095340000C134000010B5024900F0BAF84B
:1025200010BDC0465124000070B568254A1E5543B1
:102530000E002900743100F093FD041E08D0002124
:102540002A00016046600C30A0606832FEF76CFA29
:10255000200070BD10B5024800F0C1F810BDC046A3
:102560000902002010B5024800F0BAF810BDC046BC
:102570000902002010B5024800F0B1F810BDC046B5
:102580000A02002010B5024800F0AAF810BDC046AB
:102590000A02002013B50400FFF7ECFFA369002B2B
:1025A00002D0FFF7EFFF13BDA364E3642365134B71
:1025B000134A1B68A2620193A34201D10123A361C4
:1025C000200000F01FF86060200000F01BF8A06001
:1025D000200000F017F800220421E0606068FFF797
:1025E00077FF01220921A068FFF772FF0222122162
:1025F000E068FFF76DFF0123A361D2E754540000A8
:1026000019250000F8B50700FFF7A4FF1F4B1E684F
:10261000B369002B02D13000FFF7BCFF4836B46825
:102620007368013B04D53368002B22D03668F6E787
:102630000C22A55E002D1AD12000154B5830E36006
:10264000656600F04BF8FFF78DFF20000822290097
:102650002560A560656025616561A5615C30FEF758
:10266000E3F96563A563A564E5642000F8BD6834FB
:10267000D7E704213800FFF757FF041E3060D5D19B
:10268000FFF770FF0C233B60EFE7C0465454000097
:102690000100FFFFF7B50400060000270191483450
:1026A0006368A5680093009B013B009304D52468F0
:1026B000002CF5D13800FEBDAB89012B08D90E22C4
:1026C000AB5E013304D029003000019B98470743DB
:1026D0006835E8E7004870476001002070477047A0
:1026E0007047000070B50E001D000E23C95E140077
:1026F00096B0002908DA0C22B35E00222A601B067D
:1027000011D48023DB000FE06A4600F033FF00287D
:10271000F1DBF02301991B021940054BC9184B420C
:1027200059412960EDE740230020236016B070BDB9
:1027300000E0FFFFF7B502268B8905000C0033424D
:1027400006D0230047332360236101236361F7BD73
:102750006A4601ABFFF7C6FF00990700280000F0AA
:102760007FFC002808D10C22A35E9A05EFD4032237
:1027700093431E43A681E4E70F4BAB628023A289FB
:1027800020601343A381009B20616361019B002BA8
:102790000DD028000E23E15E00F0FEFE002806D0DA
:1027A0000322A38993431A0001231343A381A08921
:1027B0000743A781CBE7C0461925000010B5034B9E
:1027C0000100186800F04CFC10BDC0460C00002051
:1027D000C9B28218904201D10020704703788B4221
:1027E000FBD00130F6E7002310B59A4200D110BDAE
:1027F000CC5CC4540133F8E770B5456A06000C00A0
:10280000002D0ED11020FFF7D9FF021E706204D1F7
:102810006621194B194800F06DFE45608560056022
:10282000C560756AEB68002B13D0736AA200DB6881
:102830009B181868002818D101210D00A5406A1DB9
:102840003000920000F074FB00280CD044608560DA
:102850000DE021220421300000F06AFB736AE86079
:10286000DB68002BE1D1002070BD02681A600023F4
:102870000361C360F8E7C04699540000A05500000A
:1028800070B5466A05000C00002E0ED11020FFF72F
:1028900095FF021E686204D18A21094B094800F0A5
:1028A00029FE466086600660C660002C07D06B6A11
:1028B0006268DB6892009B181A6822601C6070BD19
:1028C00099540000A0550000F7B50E0001900C00CF
:1028D0001D0000200F6914363368013099B251434E
:1028E0001B0C534349190D0C5B191D0C89B21B04B9
:1028F0005B1808C68742EFDC002D22D0A368BB42DC
:1029000019DC63680198591CFFF776FF061E05D194
:102910000200B5210C4B0D4800F0ECFD21002369AD
:102920000C319A1C92000C30FFF75DFF21000198DA
:10293000FFF7A6FF34003B1D9B00E3185D607B1C86
:1029400023612000FEBDC0462E550000A0550000AA
:102950000300020C0020824201D11B0410301A0E29
:1029600001D108301B021A0F01D104301B019A0F4C
:1029700001D102309B00002B03DB01305B0000D44F
:1029800020207047036802000721180008400B420E
:102990000DD0063900200B4205D10230034203D08E
:1029A000CB400800136070479B081360FBE799B2A7
:1029B000002901D110201B0CD9B2002901D1083007
:1029C0001B0A190701D104301B09990701D10230F4
:1029D0009B08D907E9D401305B08E6D12020E2E763
:1029E00010B50C000121FFF707FF002806D1A02138
:1029F0000200044B0448490000F07CFD01234461BF
:102A0000036110BD2E550000A0550000F0B50B6904
:102A1000140012690D0089B0934201DA25000C0000
:102A20002F6926696968BB190293AB68BA1993428A
:102A300000DA0131FFF7E0FE0190002806D15E21A7
:102A40000200484B4848FF3100F054FD019B002232
:102A500014339C46BB199B0063440393634603995C
:102A60008B422CD32B0022001433BF001432069368
:102A7000B600DB19049393190793042305932B00E5
:102A8000049915330092994205D34B1B153B9B08C3
:102A900001339B000593079B009A9A4211D3029B36
:102AA000002B06DD039B043B03931B680093002B64
:102AB00053D0019B029A18001A6109B0F0BD04C3FB
:102AC000CDE7009B1B6898B200281BD06746002406
:102AD000069E02CE3A688BB2434392B29B181B19F2
:102AE0000C0C44433A68110C61181C0C09190C0CAD
:102AF0009BB209040B4308C7049BB342E9D8634661
:102B0000059A9C50009B1B681E0C20D063462C002D
:102B1000604600271B68143422689BB291B271434F
:102B20000268120C8918CF1939040B43036002CCD8
:102B30004368090C71439BB23F0CCB18049ADB1914
:102B40001F0C0430A242E7D8624605995350009BFF
:102B50000433009304239C449DE7029B013B0293B2
:102B60009DE7C0462E550000A0550000F7B5032391
:102B7000150007000E001A401D4208D02549013AF1
:102B80009200525800233100FFF79EFE0600AD1060
:102B90003DD07C6A002C0FD11020FFF70FFE021EE3
:102BA000786205D1D7211C4B1C48490000F0A2FCDB
:102BB000446084600460C4607B6A9C680193002C5C
:102BC00008D138001649FFF70BFF019B04009860FD
:102BD0000023036001231D420AD031002200380087
:102BE000FFF714FF310001903800FFF749FE019E06
:102BF0006D100CD02068002807D122002100380079
:102C0000FFF704FF0023206003600400E2E73000C8
:102C1000FEBDC0461057000099540000A0550000AA
:102C200071020000F0B50C0017002369551187B040
:102C3000EB180293013301934968A3680490019A49
:102C4000934210DB0498FFF7D7FD00230200060033
:102C50001900143298420CD1DA210200264B274881
:102C6000FF3100F047FC01315B00E8E798001150AC
:102C70000133AB42FADBEB43DB171D401F2123007E
:102C80003800AD005519226914339200084084467B
:102C90009A180F422AD00131091A05910021039593
:102CA00067461868B8400143039802C002CB0390FE
:102CB0000598C1409A42F3D820001530042382427F
:102CC00004D3131B153B9B0801339B00E9500029DB
:102CD00002D0029B02330193019B0498013B210027
:102CE0003361FFF7CDFD300007B0F0BD02CB02C568
:102CF0009A42FBD8F0E7C0462E550000A0550000D0
:102D000002690B6930B50400D01A9A420DD19B00BC
:102D100014341431E218C918043A043915680B68E0
:102D20009D4203D001209D4203D330BD9442F3D392
:102D3000FBE74042F9E70000F0B50E000700110084
:102D4000300087B01400FFF7DBFF051E10D1010033
:102D50003800FFF751FD021E04D1404B4049414865
:102D600000F0C8FB012345610361100007B0F0BD0E
:102D700001230193002804DB230034001E000023FC
:102D8000019338006168FFF737FD021E03D19021DF
:102D9000324B8900E3E7019B0027C36020691434AC
:102DA0000194019B84001B1934000293336914348D
:102DB000990063180393130014339C460593019BF9
:102DC0000493049B02CC20CB0493ABB2DF198BB2EB
:102DD000FB1A090C2D0C6D1A19146D1861462F146D
:102DE0009BB22D042B4308C1039B8C46A342E8D819
:102DF0003100039C153104238C4204D3A31B153BE3
:102E00009B0801339B000199CC1805992600CB182B
:102E10009C4602998E4210D3029EE11E00258E42EE
:102E200004D3310003310C1BA408A5005B19043B3B
:102E3000196800290FD0106197E702CE8DB2ED1905
:102E40000F0C291479180F14ADB209040D43614613
:102E500020C18C46DDE70138E9E7C0462E55000069
:102E600032020000A0550000F7B5012114001E0039
:102E7000089FFFF7C1FC051E05D10200264B27491C
:102E8000274800F037FB330376001B0B760D24D167
:102E90000193002C27D068460094FFF773FD009C37
:102EA00000281ED0019B20211A00091A8A40C34025
:102EB00022436A610193019CAC61631E9C41013411
:102EC0002C61002E18D0174BF61835233618181A17
:102ED000099B3E6018602800FEBD80225203134308
:102EE000D6E76C61E7E701A8FFF74CFD0124019BE1
:102EF0002C616B612030E4E70B4BC0180B4B386042
:102F0000E3189B00EB185869FFF722FD6401099B49
:102F1000241A1C60DFE7C0462E5500000A0300009B
:102F2000A0550000CDFBFFFFCEFBFFFFFFFFFF3FE3
:102F300070B5130C0D0C1ED1002B0CD189B294B2BC
:102F40004C43210000F08CF8051E1BD0220000210C
:102F5000FDF76AFD16E01D1C0B1C92B289B29CB2F3
:102F60005143ABB263430C0C1C19220C07D124044F
:102F700089B20C43E5E7002B01D1131CEDE70C23CC
:102F800000250360280070BD70B50500002910D031
:102F90000C1F2368002B00DAE418280000F034FB33
:102FA0001D4A1368002B05D163601460280000F0EF
:102FB00033FB70BDA34208D9216860188342F3D166
:102FC00018685B6841182160EEE71A005B68002B07
:102FD00001D0A342F9D911685018A0420BD1206842
:102FE0000918501811608342E0D118685B684118D5
:102FF00011605360DAE7A04202D90C232B60D5E7B9
:1030000021686018834203D118685B684118216009
:1030100063605460CAE7C0460C02002070B50F4ED2
:103020000D0031680400002902D100F0F1F9306090
:103030002900200000F0ECF9431C0AD00323C51C32
:103040009D43A84207D0291A200000F0E1F9431C53
:1030500001D101256D42280070BDC046100200203C
:10306000F7B50322CB1C9343083306001F000C2B3B
:1030700032D20C27B94231D8300000F0C5FA324DB7
:103080002B681C00002C2ED139003000FFF7C6FF42
:103090000400431C1ED12C682500002D4AD1236852
:1030A0002900E3183000019300F0B2F9019B83423C
:1030B00043D123680337FF1A03239F4308370C2F9C
:1030C00000D20C2739003000FFF7A8FF431C34D092
:1030D0002368DF19276013E0002BCBDA0C230025CF
:1030E00033602800FEBD2268D11B20D40B2917D9DC
:1030F000E2192760A34211D12A606368116053600E
:103100003000250000F088FA07220B35231D954377
:10311000EA1A9D42E5D05B1BA350E2E75A60ECE758
:103120006268A34201D12A60EAE75A60E8E7230017
:103130006468A7E72C006D68AFE70C2330003360AC
:1031400000F06AFACDE7C0460C020020936810B583
:10315000013B9360002B04DA9469A34207DB0A2940
:1031600005D01368581C10601970080010BDFEF7D8
:103170006FF90100F9E7F8B506000F001400D51843
:10318000AC4201D1002007E021783A003000FFF77F
:10319000DDFF0134431CF3D1F8BD0000F0B5A1B050
:1031A00006000C001F000392002804D08369002B46
:1031B00001D1FFF7EFF98E4B9C421CD17468636E0E
:1031C000DB0705D4A3899B0502D4A06DFFF787FA1E
:1031D000A3891B0702D52369002B1DD121003000D4
:1031E000FEF78CF9002817D0636EDB070DD50120A0
:1031F000404221B0F0BD7F4B9C4201D1B468DEE774
:103200007D4B9C42DBD1F468D9E7A3899B05EED4C2
:10321000A06DFFF765FAEAE7002308AD6B61203384
:103220006B761033AB760797039F3B78002B01D06A
:10323000252B4ED1039BFB1A0593039B9F420DD078
:10324000059B21003000039AFFF795FF431C00D136
:10325000B5E06A69059B944663446B613B78002B3B
:1032600000D1ACE001227B1C0393002352426A6030
:1032700004A9543252182B60EB60AB601370AB653D
:10328000039B052219785D48FFF7A2FA039B5F1C98
:10329000002820D12A68D30604D5532304A95B183B
:1032A00020211970130704D5532304A95B182B217F
:1032B0001970039B1B782A2B16D00021EB68039F03
:1032C0003A78781C303A8446092A4FD9002911D11E
:1032D00017E00137A9E7494B2A68C01A0123834048
:1032E00013432B600397CBE7079B191D1B680791BE
:1032F000002B01DB0B9304E05B42EB6002231343E2
:103300002B603B782E2B0AD17B782A2B37D1079B59
:1033100002371A1D1B680792002B2DDB099303222D
:1033200039783748FFF754FA002807D0344B2A6819
:10333000C01A40238340134301372B6039787B1C2C
:103340000622304803932976FFF742FA002845D039
:103350002D4B002B27D10722079B073393430833BC
:1033600007936B69049A9B186B615DE70A214B43D5
:1033700067469B180939A3E701235B42CEE7002388
:103380001A0001376B603978781C30398446092976
:1033900003D9002BC3D00992C1E70A235A436746D9
:1033A0005218093BEFE707AB0093220029003000D9
:1033B000164BFDF7EBFB0490049B0133D1D1636EF8
:1033C000DB0705D4A3899B0502D4A06DFFF788F91C
:1033D000A3895B0600D50AE70D980AE707AB0093BF
:1033E000220029003000094BFDF782FEE3E7C046CA
:1033F0006055000080550000405500001C5700003B
:1034000022570000265700008D0B00007731000086
:10341000002370B5064D040008002B6001F082FF08
:10342000431C03D12B68002B00D0236070BDC04625
:103430000402002070B50C000E25495F00F0F4F87E
:10344000002803DB636D1B18636570BDA389024A06
:103450001340A381F9E7C046FFEFFFFFF8B51F0057
:103460008B8905000C001600DB0505D50E23C95E0F
:103470000022022300F0A2F8A389054A2800134085
:10348000A38132000E23E15E3B0000F01FF8F8BD7F
:10349000FFEFFFFF70B50C000E25495F00F08EF8BE
:1034A000A389421C03D1054A1340A38170BD802229
:1034B00052011343A3816065F8E7C046FFEFFFFFA9
:1034C00010B50E23C95E00F033F810BD70B50400CE
:1034D000080011001A000023054D2B60FCF798FF2F
:1034E000431C03D12B68002B00D0236070BDC04665
:1034F0000402002030B514001A00094B05001B68B7
:1035000085B0D868074B002C01D1074B1C000193F4
:1035100000912B000549029400F01CF800F0A5F87A
:103520000C0000202D570000075400003A570000FF
:10353000002370B5064D040008002B60FDF71CF851
:10354000431C03D12B68002B00D0236070BDC04604
:10355000040200200EB403B5010003AB044804CB01
:1035600000680193FFF71AFE02B008BC03B01847C9
:103570000C000020002370B5064D04000800110067
:103580002B60FDF701F8431C03D12B68002B00D002
:10359000236070BD04020020002370B5064D0400B6
:1035A00008002B60FCF7F8FF431C03D12B68002BAD
:1035B00000D0236070BDC0460402002070B5040036
:1035C000080011001A000023054D2B60FCF7EBFFEB
:1035D000431C03D12B68002B00D0236070BDC04674
:1035E0000402002082B0002900D101A9101E06D0DB
:1035F000002B06D013780B601078431E984102B060
:10360000704702204042FAE710B50248FFF767F81A
:1036100010BDC0460802002010B50248FFF760F850
:1036200010BDC0460802002070B50400080011005B
:103630001A000023054D2B60FCF706FF431C03D145
:103640002B68002B00D0236070BDC0460402002010
:103650000300081E05D0FF2A04D98A2201201A601F
:103660004042704701200A70FBE7062010B5FCF7C6
:103670007BFF012001F064FE02B471464908490055
:10368000095C49008E4402BC7047C04603B47146D1
:10369000490840004900095E49008E4403BC704758
:1036A0008446100062468C461900634600E0C0461E
:1036B0001FB500F00DFF002801D40021C8421FBD36
:1036C00010B500F05DFE4042013010BD10B500F0B5
:1036D000FFFE002801DB002010BD012010BDC04608
:1036E00010B500F0F5FE002801DD002010BD01201E
:1036F00010BDC04610B500F085FE002801DC00209A
:1037000010BD012010BDC04610B500F07BFE0028A2
:1037100001DA002010BD012010BDC046F0B54F46B3
:103720004646D6460D000400C0B51F001100280310
:10373000620F400A10437A00520DE3003C039146A9
:10374000640AFA0F4F0F6E0027439246B846760D73
:10375000ED0FC900954200D199E04C46341BA446B8
:10376000002C00DC7CE04A46002A00D1B8E0C54AC3
:10377000964200D11CE180223C0012041443A04672
:103780006246382A00DD61E11F2A00DDCCE1644693
:103790002022121B444694400F00A14664469140EB
:1037A000E7404C464A1E91413C4342462143644611
:1037B000E240801A5C1AA3429B415F42C71B3B0256
:1037C00000D4D0E07F027F0A002F00D1FFE0380054
:1037D00001F08AFD01000839202322005B1A8F4086
:1037E000DA408C401743B14200DAFFE0891B4B1CE2
:1037F0001F2B00DDA8E020223900D21A20009440BF
:103800009140D840621E9441DF40002601430C43A2
:10381000630709D00F232340042B05D0231DA342A7
:10382000A44164423F191C003B0200D49EE0954B2A
:1038300001369E4200D1B7E0934AE40817407B0767
:1038400071057F0223433F0B4A0D12053A43ED07F2
:103850002A4318001100E0BCBA46B146A846F0BDA4
:10386000002C4BD04C46A41BA446002E00D023E1D4
:1038700004001C4300D1AFE16246541E012A00D16E
:1038800015E2804DAC4500D1C8E1A4461BE14A4693
:10389000B21A9446002A00DCACE04A46002A43D023
:1038A000784A964200D1AFE180223C0012041443D2
:1038B000A0466246382A67DC1F2A00DC5FE14746E3
:1038C000203AD7406246202A05D064464022121B87
:1038D0004446944021434A1E91410C003C4357E02A
:1038E0003A000A4300D105E12200013A012C00D13F
:1038F00082E1644CA4455BD0944641E7634C771C5D
:10390000274200D0C4E004001C43002E00D069E12F
:10391000002C00D1BFE144460C4300D0D0E1420767
:10392000DB081343C00829E03A000A4300D170E1E4
:1039300062466446013A012C00D1E0E0514CA445B6
:1039400000D161E19446B4E73A001F39CA40110042
:10395000202B03D04022D31A9F403C43631E9C413E
:10396000002700260C43630700D053E7B446E40861
:103970007B072343F808434A94451DD0624607035A
:1039800052053F0B520D60E744460C43621E9441C2
:10399000E4189C429B415F423F183B02E3D5394B00
:1039A00001369E4200D0B5E03200002700234CE7EC
:1039B0004207DB081343C0081A00024300D1E1E1CB
:1039C00080273F0307433F032E4A3F0B3DE720007C
:1039D00001F08AFC010018311F2900DCFCE60838E0
:1039E000844027000024B14200DBFFE6264A761A15
:1039F00017400DE7002A2FD04A46921B9446002E0E
:103A000000D1ADE01F4A914500D10FE180221204A0
:103A100010436246382A00DD0FE11F2A00DD80E1F5
:103A2000644620221E00121B674604009340944007
:103A3000FE405A1E9341F84034431C4380446418AE
:103A40008C42BF417F424E464744A6E742460A4366
:103A500011004A1E9141ADE60C4C721C224200D06E
:103A6000A1E002001A43002E00D0FAE0002A00D1A3
:103A700045E13A000A4300D046E14207DB08134320
:103A8000C0087BE7FF070000FFFF7FFFFE07000085
:103A900047465C1AC21BA342BF417F42B94617008A
:103AA0004A46BF1A3A0200D58DE023003B4300D0BE
:103AB0008AE60020002561E7B44CA14500D1ADE0C5
:103AC0008024240420436446382C3DDC62461F2CAD
:103AD00000DDB7E020251E002D1B0400AB40AC40EC
:103AE000D640D04042465D1EAB413443121A904648
:103AF00023432CE04207DB081343C0083BE75C1874
:103B00009C429B4140445B42C71801263B0200D4C3
:103B100029E702269E4A63081740012214401C43ED
:103B2000FB071C437F0873E64446203AD4406246B4
:103B3000202A05D067464022D21B4746974039438A
:103B40004A1E9141214335E60343581E8341CC1A56
:103B5000A142BF4143467F4255464E46DF1B2EE6FB
:103B600002001A4300D1BDE062466446013A012CCE
:103B700000D1E5E0854CA44558D0944649E7644619
:103B80002022121B444694400F00A14664469140F7
:103B9000E7404C464A1E91413C4342460C43614635
:103BA000CA408018F4E6794CA24200D1FDE65918CB
:103BB00099429B4140445F42C719FC0749081600DF
:103BC0000C437F08CFE6CC1AA142BF4143467F4257
:103BD000181A5546C71BF7E5C9087B0755460B431E
:103BE000F808C8E6002C00D081E043460B4315D10D
:103BF000802000250003E3E65C1AA3429B41C71B1B
:103C00005B420126FF1ADAE54207DB081343C008CE
:103C1000D2E64207DB081343C008ACE643464246FF
:103C2000C9085B0755460B43D008C5E643464246E4
:103C30005B07C9080B43D008BEE603431C00631EA4
:103C40009C41FCE60200203CE24014006246202A2F
:103C500003D04025AD1AA8400343581E8341234397
:103C600075E7002AE2D03A000A43CDD04207DB08CC
:103C700013438022C0081203104206D0FC081442ED
:103C800003D12000CB087A0713435A0FDB005207F9
:103C9000DB08134390E643460B4300D109E7434654
:103CA0004246C9085B0755460B43D00866E6CC1A66
:103CB000A14289413F1A4942554601267F1A7EE5B5
:103CC00042465C1A871AA34292415242BF1A3A02F4
:103CD0003DD5CC1AA1428941434649421F1A554657
:103CE0007F1A95E57B07C9080B43F80843E644466D
:103CF000DB080C4330D142071343C0085CE67B0766
:103D0000C9080B43F80839E65C189C429B414044C3
:103D10005B42C7183B0200D425E61D4B01261F401D
:103D200021E60400203AD4406246202A04D04022F2
:103D30006646921B904003435A1E93411C437EE605
:103D40005C188C428941404449424718DDE6230013
:103D50003B4300D1ADE606E6440723438024C00878
:103D60002403204208D04246D608264204D15546B4
:103D70003000CB0851070B435A0FDB00DB0852071A
:103D8000134319E60023014A1F005EE5FF07000008
:103D9000FFFF7FFFF0B557464E464546DE46E0B58D
:103DA000814605000C03480092461F0085B0240B95
:103DB000400DCE0F002800D156E1D44B984200D1DF
:103DC00072E16B0FE4001C4380231B0423439846DD
:103DD000CF4BED009B4600239946834400933C0360
:103DE0007B005046240B5B0DFF0F002B00D11FE121
:103DF000C64A934200D162E1C549420F8C46E400B5
:103E000059461443802263441204CB1A14439B4640
:103E1000C200002033007B409A464B460F2B27D828
:103E2000BC499B00CB589F46B246009B022B16D044
:103E3000032B00D18EE2012B00D0D9E00023002417
:103E4000002552461B052343D207134328001900BF
:103E500005B0F0BCBB46B246A946A046F0BD002462
:103E60000025AA4BEDE7BA46A04615000090DCE716
:103E7000444500D2C7E100D1C2E101235B429C4628
:103E80002E0040460025E3442302140E1C431B0C65
:103E9000994623041F0C1202494600920197FCF731
:103EA00093FC02007A430B04310C804619438A428A
:103EB00007D901235B429C460919E0448C4200D893
:103EC00007E2881A4946FCF77FFC09048C46310456
:103ED0006646019A090C4243030031438A4204D9E1
:103EE0000919013B8C4200D8EDE1881A42461204C0
:103EF0001A4390464146009B0E041B0C1F00029380
:103F0000009B360C1B04190C0B007343120C7E43F0
:103F1000039151437A431F0CBC4676186644B14264
:103F200003D9802149028C466244310C8A1831043D
:103F30001E04360C8E19904202D312D1B54210D213
:103F40004346591E009B9C4665441F009D429B4171
:103F50005B421B19C018844200D2A0E100D19BE152
:103F60008846AE1BB542AD41801A6D42401B84426B
:103F700000D1D5E14946FCF727FC019A0B044243E6
:103F8000310C050019438A4200D96CE1881A494670
:103F9000FCF71AFC019A360442430904360C03006C
:103FA0000E43B24200D953E10398B61A02002D0421
:103FB0001D43029F2B041B0C5A437B439C46290C38
:103FC0004843130C844463447943984203D98020C6
:103FD000400284466144180C12041B04120C411860
:103FE0009B188E4200D2FFE000D1FAE001231D436E
:103FF000494A5A44002A00DCAAE06B0700D03DE1A0
:10400000ED084346DB0106D54246444B1A40904634
:104010008022D2005A44424B9A4200DD1FE74346B9
:104020005B071D43434652055C02240B530D08E712
:104030005246224300D17BE0002C00D1FAE0200060
:1040400001F052F902000B3A1D2301009B1A52465F
:104050000839DA408C40144352468A40314B584468
:104060009B4683440020D5E64B462343984644D0E4
:10407000002C00D1CEE0200001F036F90100020052
:104080000B391D235B1A49461000D940083884407B
:104090000B004D462343984685402348831A9B4690
:1040A0000023994600939AE64B46234398461DD138
:1040B00008239946063B0025834600938FE6524627
:1040C000224309D1022349461943184B89469C468D
:1040D00000240220E3449DE603234A461A43134B7F
:1040E00091469C4652460320E34493E60C239946AE
:1040F000093BA0468346009371E6042399460023BA
:104100009B4601330025009369E6C046FF07000087
:1041100001FCFFFF74580000FF030000FFFFFFFEDB
:10412000FE070000F30300000DFCFFFF01F8FFFF96
:104130004946012319438946002401206AE60023E9
:1041400080249A4600258A4B24037AE601256D4295
:1041500001239B1A382B00DD70E61F2B00DCBFE02B
:104160001F2149428A1A4146D1400A00202B04D01F
:104170004146804B5B4499400D436B1E9D41072394
:104180002A431D0000241540134200D1D4E00F2122
:1041900000231140042900D1CBE0111D914292412E
:1041A00052429B180A00190200D4C2E001230024E5
:1041B000002546E6802341461B03194208D01C42D5
:1041C00006D11C432403BA461500694B240B38E67C
:1041D0008024434624031C432403B246644B240B2F
:1041E0002FE6002B00D103E7A619681EA64200D2D5
:1041F0008DE08E4200D2A3E000D1B3E00500F5E6E9
:10420000AA4200D939E64346DE0758086B081E4328
:10421000ED0739E6484601F067F801000200153164
:1042200020321C2900DC2CE74B460838834000254F
:10423000984632E701F058F803001A001532203092
:104240001C2A00DC00E75446083B00229C4005E79E
:104250003619013BB44200D9A6E6B24200D8A3E623
:10426000831E3619A0E60919013D8C4200D98DE65E
:104270008A4200D88AE6851E091987E60F232B405B
:10428000042B00D1BCE605235B42AB429B410435C5
:104290005B42ED089844B4E6AF4200D960E6824242
:1042A00004D800D05CE6AE4200D859E602235B4257
:1042B0009C46009BE0449C4665449D429B415B427A
:1042C0001B19C0184DE68A4200D80EE6831E091954
:1042D0000BE68A4200D8F4E5831E98460919F0E5FA
:1042E0002549280059448D4042468A40691E8D4127
:1042F0004146D840D94002432A430B00510700D120
:1043000051E70F211140042900D046E74BE7050093
:104310008E4200D06AE6009A934200D066E667E6D5
:10432000164A5A44002A00DC10E70123002598446D
:1043300067E65D075B021C0BD2080023154380E58E
:104340000098023D42008242BF417F423C1936192B
:104350000092DDE78024434624031C432403044BDE
:10436000240B6EE5009A9A42EAD30500D3E7C046D3
:10437000FF0700003E0400001E040000FF030000D1
:10438000F0B54E464546DE4657469046E0B5170026
:104390001A03120B0500844619480E034C0091467F
:1043A0005A00DB0F9B46360B640DC90F520D844239
:1043B00019D0824210D0012094420ED14E450CD12A
:1043C0000120C44509D1594517D0002C05D1300032
:1043D0002843431E984100E00120F0BCBB46B24692
:1043E000A946A046F0BD330001202B43F5D1A242DF
:1043F000F3D14B463B43F0D1E2E70020EDE7C04666
:10440000FF070000F0B54746CE460400180016002E
:104410001B031B0B2D4D4A00994680B543000F032B
:10442000A446B0463F0B520DC90F5B0DC00FAA4208
:1044300021D0AB4213D0002A22D13C43002B02D121
:104440004D462E4322D0002C10D0814222D0022093
:10445000013908400138C0BCB946B046F0BD4D46F0
:104460002E4329D1002AF0D13C43EED10028F2D1CD
:1044700001204042EFE73D0025431DD19342EED09D
:10448000002BE2D14C462643DFD1E0E70020002C90
:10449000E1D0DCE79A420ADCE8DB4F45D7D80ED002
:1044A00000204F45D7D20029E2D00800D3E743428D
:1044B000584140000138CEE702204042CBE7C445D6
:1044C000C5D80020C445C6D2EDE7C046FF070000AE
:1044D000F0B54746CE460400180016001B031B0B20
:1044E0002C4D4A00994680B543000F03A446B046C0
:1044F0003F0B520DC90F5B0DC00FAA420DD0AB424E
:1045000010D0002A27D13C43002B11D14D462E4319
:104510000ED10020002C15D00EE03D00254310D117
:10452000934218D14D462E430BD1002A02D13C4371
:10453000002C0BD0814214D00220013908400138F0
:1045400000E00220C0BCB946B046F0BD0028F9D159
:1045500001204042F6E7002BECD14C462643E9D13E
:10456000EAE79A4204DD4342584140000138E9E756
:104570009A42EBDB4F45DFD806D000204F45E1D211
:104580000029E5D00800DDE7C445D5D80020C445A2
:10459000D8D2F5E7FF070000F0B557464E4645462E
:1045A000DE46E0B598460C034B000600924687B005
:1045B000240B5B0DCF0F002B00D15CE1D94A934255
:1045C00000D175E1420FE400144380221204144329
:1045D000D54AC500944663440093002399469B4600
:1045E000434642461E03D20F5B0050469046360BB0
:1045F0005B0D00D120E1CB4A934200D162E1CA4970
:10460000420F8C4600996344F6008C461643802284
:104610009C44120463461643C20000200093009994
:10462000434601318C4649467B4001930F2926D8E9
:10463000BE4B890059588F464346019334001500FC
:1046400083465B46022B16D0032B00D103E2012BDD
:1046500000D0CDE0002200240025019B120522435A
:10466000DB071A432800110007B0F0BCBB46B24676
:10467000A946A046F0BD00240025AA4AEDE7280C73
:104680002D042D0C2B00110C1204120C53439846D0
:1046900013002F00434399464F434F44BB464746C0
:1046A0000B003F0CBA464343DA440293D14504D988
:1046B00080277F02B9464B44029353461B0C9B460E
:1046C00053461F0443461B041B0C98463B004344BF
:1046D0000493330C3604360C984633004343994612
:1046E000434643432F009A46434677435D43380C85
:1046F0004D444519A94503D980235B029946CA4414
:104700003F04280C3F0C2D04ED19270C2404240C25
:104710000300200050437A4391463A0053440593E6
:10472000030C9A464A43614349445144AB4489458A
:1047300003D980235B0299464A4400040B0C000C09
:104740000904091820009946434670435C437E43A0
:104750005F43030C9846A41944444A440397A64275
:1047600004D980235B029846474403972304029EA2
:104770009A46059B5E449846AE42AD4176188E42FD
:1047800089410004000C504440446D424719B8462A
:10479000934649428946C344D94498428041A8453A
:1047A000AD4193459241894589416D42404228433C
:1047B000240C524249420A43039B00198018C7182F
:1047C0004B46DC0D049B75021D436A1E95414B460A
:1047D000F60D7F0235435A023C431543FB0100D4DA
:1047E0001CE101216A080D401543E20715436408E6
:1047F0004F496144002900DCB0E06B0709D00F226B
:104800002A40042A05D02A1DAA42AD416D426419EE
:104810001500E30104D58021464AC90014406144D3
:10482000454A914200DD26E76207ED08640249052A
:104830001543240B4A0D10E75246324300D17FE066
:10484000002E00D1DCE0300000F04EFD02000B3AFB
:104850001D2301009B1A52460839DA408E40164348
:1048600052468A40009B3549181A03008C4663441F
:1048700000200093D3E6250005434AD0002C00D148
:10488000B0E0200000F030FD010002000B391D23D4
:1048900010005B1A3100350008388440D94085404B
:1048A0000C432648831A0093002399469B4697E6BB
:1048B0000500254326D108220093022300249146B7
:1048C0009B468DE65246009B324310D11549002687
:1048D0008C466344494600930223194389460220CB
:1048E0009DE65B460197022B00D0ADE6C3E60D4A7C
:1048F0000320944663444A46009303231A43914697
:1049000052468CE60C2200930323050091469B46F9
:1049100066E60423994600230093013300249B4656
:104920005EE6C046FF07000001FCFFFFB458000030
:10493000FF030000FFFFFFFEFE0700000DFCFFFF6E
:1049400049460123194389460026012067E60023D2
:1049500080240025434A019324037EE60120401A67
:10496000382800DD76E61F285BDD1F222300524237
:10497000511ACB401900202803D03B4A624494408E
:1049800025436A1E95412A000A4307210D00002491
:10499000154011425BD00F2100241140042953D04F
:1049A000111D914292415242A4180A0023024BD594
:1049B00001220024002550E680231B031C4209D05D
:1049C0001E4207D133431C0343461500240B254ADE
:1049D000019342E68022120314432403214A240B4C
:1049E00001973AE600F080FC010002001531203208
:1049F0001C2900DC4BE7340008380025844050E7D0
:104A000000F072FC03001A00153220301C2A00DC72
:104A10001EE75646083B00229E4023E7009B9C462B
:104A2000E6E61249220061442E008D408A40C640CD
:104A3000691E8D4132432A43C4405307B6D00F212B
:104A400011400429ACD1B1E765076402240BD208F8
:104A50001543002201E68022120314432403014A75
:104A6000240BFAE5FF0700003E0400001E040000CE
:104A7000F8B557464E464546DE46E0B51E001700DF
:104A80004A000B03520D5B0A9046420F1A43CD0FAA
:104A9000CD4C3103C300944670007A0F490AFF00E1
:104AA0009A46B946400DF60F1143A04200D1B1E03D
:104AB00001225640B346B54200D188E04246121A60
:104AC000002A00DCAEE0002800D1C1E0BE488045ED
:104AD00000D151E1802000040143382A00DD7BE150
:104AE0001F2A00DDEEE120203E00801A0C00D64097
:104AF000D140874062468440521A781E87419446CE
:104B000034432743DC1BA3429B4162465B42D31ADA
:104B100099464B461B0200D418E14B465802430A03
:104B200099464B46002B00D137E1484600F0DCFBAC
:104B3000010008392023220048465B1ADA408840E9
:104B40008C4043461043884500DD36E1C91A4B1CB2
:104B50001F2B00DDEAE020222600D21A010094403B
:104B6000DE40D84000239140621E94418146984621
:104B700031430C43630709D00F232340042B05D096
:104B8000231DA342A4416442A1441C004B461B02C6
:104B900000D4DEE041468C4B0131994200D1E7E080
:104BA0004B468A48E4080340180049055B07400269
:104BB00023434A0D040B1205ED0722432A43180034
:104BC0001100F0BCBB46B246A946A046F8BD42461D
:104BD000121A002A52DD002800D19CE0A04500D125
:104BE000CAE0802000040143382A00DD49E11F2A81
:104BF00000DC97E110000E002038C640202A04D0C7
:104C00004020821A91400F43B9464C46621E94419F
:104C100034433AE10A003A4328D0B346B5422BD098
:104C20006B4A4244002A5DD042464446821A002C18
:104C300000D0F5E065461D4300D19CE1551E012AD8
:104C400000D1FBE1604CA24200D1BDE12A00F0E0BE
:104C50000800384300D1C3E0501E012A00D1A8E16A
:104C6000594CA24200D187E0020036E701225640AB
:104C7000B346B54200D021E7554A4244002A00D14C
:104C8000B5E042464446821A002C00D138E14E4E2F
:104C9000B04200D1DEE18026644636043443A446A7
:104CA000382A00DD96E11F2A00DD24E22026B41A0E
:104CB000A24664465646B440A1461C004E46D44027
:104CC000264334005646B3405E1EB3411C43634640
:104CD000D340C918E419BC42BF417F42B94680465F
:104CE0008944D8E040463B4C0130204200D0B4E03B
:104CF0004046002800D044E16046184300D190E1CE
:104D00000800384300D0AAE16146DB0849070B439D
:104D10006146CC0827E00800384361D0501E012AC4
:104D200000D139E1A24227D002005DE702001F391D
:104D3000CA401100202B03D04022D31A98400443CC
:104D4000631E9C410023994698460C43630700D09C
:104D500012E74B464A46E4085B072343D408424621
:104D600019498A420ED024035205240B520D22E722
:104D70000A00002400231EE7DB08624652071343A3
:104D80006246D4081A00224300D1FCE180221203BB
:104D9000144324030C4A240B0DE7200000F0A4FA6E
:104DA000010018311F2900DCC4E60838844043465E
:104DB00020000024884500DCC8E6044A5B1A104045
:104DC00098468146D6E6C046FF070000FFFF7FFFFA
:104DD00001F8FFFFFE0700000F437A1E974191E69E
:104DE0006146DB0849070B436146CC08B8E74046FB
:104DF000D34C0130204200D0A2E04046002800D031
:104E000001E16046184300D15EE10800384300D05C
:104E10005FE16146DB0849070B436146CC08A2E726
:104E2000C84DA84200D1CFE0802564462D042C4314
:104E3000A446382A56DC1F2A00DDD1E020251E00BA
:104E4000AD1A6446AB40AC40D6405D1EAB41344326
:104E500023436446D440091B49E06046DC1B461AE4
:104E6000A34280414042814630004E46801B81462D
:104E7000000276D44B46234300D052E6002400259E
:104E800071E739430C00621E9441E4189C429B4137
:104E90005B42634499464B461B0200D456E701230C
:104EA0009C46A84BE044984538D04B46A648012282
:104EB00003401800630814401C43C3071C43430805
:104EC000994657E610000E002038C640202A04D02C
:104ED0004020821A91400F43B9464F467A1E9741AF
:104EE00037430FE662461A4313005A1E9341FC1AD9
:104EF000A742BF417F42CB1B99465D46804608E6EC
:104F000066461E4300D1BEE0561E012A00D109E1CB
:104F10008C4CA24200D119E13200C1E64246002485
:104F2000002348E620200C00801A3E008740844081
:104F3000D640781E8741D14034433C438C44A4E79B
:104F4000804A904200D1E9E0DF199F429B416144D1
:104F50005B42C918CC077F084B08994680463C4302
:104F6000F4E6FC1AA742BF4163467F42C91ACB1B35
:104F700099465D46D5E5FF084B075D463B43CC08A7
:104F8000EEE662461A4300D082E00B003B431BD1A1
:104F9000802400252403F9E6DC199C429B416144EE
:104FA00089465B4299444B461B0244D401239846F0
:104FB000CCE6DC1B6246A3429B41511A5B42CB1AF2
:104FC000994601239846A4E5FF084B075D463B43FD
:104FD000CC08D7E662461A431400631E9C4179E66A
:104FE00015006446203DEC40A046202A05D040250F
:104FF0006446AA1A944023439A465446631E9C4131
:105000004346234373E762461A4323D00A003A43D8
:1050100000D0A0E06246DB08520713436246D40882
:10502000B0E60B003B4300D128E7FF084B075D4685
:105030003B43CC0897E60223984636E7FC1AA74282
:10504000BF4163467F42C91ACB1B994601235D4687
:1050500098465EE54B07FF083B43CC0892E6DC1B15
:105060006046A342B641401A7642801B8146000248
:1050700060D5FC1AA742BF4163467F42C91ACB1BC9
:1050800099465D4676E5FF084B073B43CC0867E64B
:105090000A00DB083A4300D16FE662465207134329
:1050A0006246D40880221203144207D0C808104276
:1050B00004D15D460400FB0849070B435A0FDB008F
:1050C000DB08520713435DE64B07FF083B43CC0860
:1050D00049E6DC199C429B41614489465B42994404
:1050E0004B461B0200D431E64A46174B1A400123B7
:1050F000914698462AE616006446203EF440A046B3
:10510000202A05D040266446B21A944023439A468A
:105110005446631E9C4143461C43DBE502000024C9
:10512000002348E5DC19BC42BF41614489467F4207
:10513000B94438E74B46234300D19FE606E6C04614
:10514000FE070000FF070000FFFF7FFFFF084B077F
:105150003B43CC0816E66246DB085207134362461F
:10516000D40880221203144207D0C808104204D188
:105170005D460400FB0849070B435A0FDB0052074A
:10518000DB081343FEE50023014A1C0013E5C0467B
:10519000FF07000070B505000C481C0316005B00FB
:1051A0000A034900120B490D240B5B0D814208D004
:1051B000064A0020934203D120003043431E984109
:1051C00070BD01202A43FBD1F2E7C046FF07000073
:1051D0000A0030B5134C530009030500090B0020E9
:1051E0005B0DD20FA34204DD0F48834202DD0F4B5B
:1051F000D01830BD8020400301430D48C01A1F283D
:1052000008DD0C48C31AD9400B005842002AF0D1DF
:105210001800EEE7084CC540A446634499400B00D3
:105220002B43F2E7FE0300001D040000FFFFFF7F99
:105230003304000013040000EDFBFFFF70B50028ED
:1052400016D0C317C5185D40C40F280000F04CF8F5
:10525000114A121A0A2816DC03002E0015339E404C
:105260000B23181AC54052052D032D0B530D03E0D7
:1052700000240023002500261B052B43E4072343BD
:105280003000190070BD0B38854052052D030026F3
:105290002D0B530DF0E7C0461E04000010B5041E90
:1052A00010D000F021F80F4B1B1A0A2811DC0B223A
:1052B0002100121AD14015300A035B058440120BFD
:1052C0005B0D01E0002300221B05134320001900A1
:1052D00010BD22000B3882405B0512030024120B24
:1052E0005B0DF1E71E0400001C2101231B04984202
:1052F00001D3000C10391B0A984201D3000A083967
:105300001B09984201D30009043902A2105C40181D
:105310007047C046040302020101010100000000C1
:1053200000000000044A03001068002802D0C318DF
:10533000136070470148FAE71402002018020020A9
:10534000FEE7C046F8B5C046F8BC08BC9E467047AC
:10535000F8B5C046F8BC08BC9E4670470A0A4350E0
:1053600055204020257520487A0A002B2D2D2D2D03
:105370002D2D2D2D2D2D2D2D2D2D2D2D2D2D2D2D5D
:105380002D2D2D2D2D2D2D2D2D2D2D2D2D2D2D2D4D
:105390002D2D2D2D2D2D2D2D2D2D2D2D2D2B007C1D
:1053A00020202020202020204E55433132312F3123
:1053B000323520546F67676C65204C45442053613B
:1053C0006D706C6520436F646520202020202020B4
:1053D000207C002B2D2D2D2D2D2D2D2D2D2D2D2DEA
:1053E0002D2D2D2D2D2D2D2D2D2D2D2D2D2D2D2DED
:1053F0002D2D2D2D2D2D2D2D2D2D2D2D2D2D2D2DDD
:105400002D2D2D2D2D2B0A00000000000400000082
:105410000C00000024000000000000000400000058
:105420002C000000001BB7000000000000800000FE
:1054300000366E01001BB7000080000000D8B805E0
:1054400010270000006CDC02006CDC020000000091
:1054500000366E0110000020494E4600696E66005D
:105460004E414E006E616E003000303132333435C3
:1054700036373839414243444546003031323334BF
:10548000353637383961626364656600496E66692E
:105490006E697479004E614E005245454E54206D40
:1054A000616C6C6F6320737563636565646564002C
:1054B0002F6D6E742F776F726B73706163652F77CA
:1054C0006F726B73706163652F4743432D31302DCD
:1054D000706970656C696E652F6A656E6B696E7355
:1054E0002D4743432D31302D706970656C696E65B1
:1054F0002D3333385F32303231313031385F31362D
:1055000033343531363230332F7372632F6E657713
:105510006C69622F6E65776C69622F6C6962632FAC
:105520007374646C69622F64746F612E63004261EE
:105530006C6C6F63207375636365656465640000FC
:10554000000000000000000000000000000000005B
:10555000000000000000000000000000000000004B
:10556000000000000000000000000000000000003B
:10557000000000000000000000000000000000002B
:10558000000000000000000000000000000000001B
:10559000000000000000000000000000000000000B
:1055A0002F6D6E742F776F726B73706163652F77D9
:1055B0006F726B73706163652F4743432D31302DDC
:1055C000706970656C696E652F6A656E6B696E7364
:1055D0002D4743432D31302D706970656C696E65C0
:1055E0002D3333385F32303231313031385F31363C
:1055F00033343531363230332F7372632F6E657723
:105600006C69622F6E65776C69622F6C6962632FBB
:105610007374646C69622F6D707265632E63000031
:105620000080E03779C34143176E05B5B5B893469E
:10563000F5F93FE9034F384D321D30F94877825A6A
:105640003CBF737FDD4F1575000000000000F03F88
:10565000000000000000244000000000000059404D
:105660000000000000408F40000000000088C340A0
:1056700000000000006AF8400000000080842E4115
:1056800000000000D01263410000000084D7974161
:105690000000000065CDCD41000000205FA0024267
:1056A000000000E876483742000000A2941A6D42DC
:1056B000000040E59C30A2420000901EC4BCD642CF
:1056C00000003426F56B0C430080E03779C341437A
:1056D00000A0D8855734764300C84E676DC1AB43F0
:1056E000003D9160E458E143408CB5781DAF15440E
:1056F00050EFE2D6E41A4B4492D54D06CFF08044E9
:10570000F64AE1C7022DB544B49DD9794378EA44FD
:1057100005000000190000007D000000232D302B43
:105720002000686C4C00656667454647002C206683
:10573000756E6374696F6E3A20006173736572747D
:10574000696F6E2022257322206661696C65643A58
:105750002066696C6520222573222C206C696E6599
:10576000202564257325730A004300504F53495880
:10577000002E000020202020202020202028282863
:105780002828202020202020202020202020202009
:105790002020202088101010101010101010101051
:1057A0001010101004040404040404040404101071
:1057B000101010101041414141414101010101010E
:1057C00001010101010101010101010101010110BA
:1057D00010101010104242424242420202020202E3
:1057E000020202020202020202020202020202108B
:1057F0001010102000000000000000000000000059
:105800000000000000000000000000000000000098
:105810000000000000000000000000000000000088
:105820000000000000000000000000000000000078
:105830000000000000000000000000000000000068
:105840000000000000000000000000000000000058
:105850000000000000000000000000000000000048
:105860000000000000000000000000000000000038
:1058700000000000703E00005E3E00003C3E000064
:10588000663E00003C3E00003E4100003C3E000001
:10589000663E00005E3E00005E3E00003E410000AD
:1058A000663E0000283E0000283E0000283E000022
:1058B000B44100007E4600003C4600003C4600002B
:1058C0003846000042460000424600004E490000B3
:1058D00038460000424600004E49000042460000A3
:1058E00038460000E2480000E2480000E2480000BC
:0858F000B849000000000000AF
:0858F80010A8FF7F0100000071
:105900006000000000D8B80500D8B80510000020DD
:105910000000000060550000805500004055000068
:105920000000000000000000000000000000000077
:105930000000000000000000000000000000000067
:105940000000000000000000000000000000000057
:105950000000000000000000000000000000000047
:105960000000000000000000000000000000000037
:1059700043000000000000000000000000000000E4
:105980000000000000000000000000000000000017
:1059900043000000000000000000000000000000C4
:1059A00000000000000000000000000000000000F7
:1059B00043000000000000000000000000000000A4
:1059C00000000000000000000000000000000000D7
:1059D0004300000000000000000000000000000084
:1059E00000000000000000000000000000000000B7
:1059F0004300000000000000000000000000000064
:105A00000000000000000000000000000000000096
:105A10004300000000000000000000000000000043
:105A20000000000000000000000000000000000076
:105A30004300000000000000000000000000000023
:105A40000000000000000000000000000000000056
:105A500051360000E53500000000000073570000DB
:105A6000715700000754000007540000075400005D
:105A700007540000075400000754000007540000BA
:105A80000754000007540000FFFFFFFFFFFFFFFF68
:105A9000FFFFFFFFFFFF00000100415343494900A2
:105AA00000000000000000000000000000000000F6
:105AB000000000000000000000004153434949007D
:105AC00000000000000000000000000000000000D6
:105AD000000000000000000000000000E9000000DD
